:1000000091C00000ACC00000AAC00000A8C0000061
:10001000A6C00000A4C00000A2C00000A0C0000054
:100020009EC000009CC0000038C2000098C00000C4
:1000300096C0000094C0000092C0000090C0000074
:100040008EC000008CC000008AC0000088C0000084
:1000500086C0000084C0000082C0000080C0000094
:100060007EC000007CC000007AC0000078C00000A4
:1000700076C0000074C0000072C0000070C00000B4
:100080006EC000006CC000006AC0000068C00000C4
:1000900066C0000064C000001201100102000008E8
:1000A000EB03442001000102DC0109023E000201D1
:1000B00000C0320904000001020201000524001002
:1000C0000104240206052406000107058203080036
:1000D000FF09040100020A000000070504021000E5
:1000E00001070583021000010403090418034400FA
:1000F000650061006E002000430061006D00650036
:100100007200610000001C034C00550046004100D5
:1001100020004300440043002000440065006D00BF
:100120006F00000011241FBECFEFD0E2DEBFCDBFB5
:1001300011E0A0E0B1E0E2E7FEE000E00BBF02C0AA
:1001400007900D92AA36B107D9F711E0AAE6B1E0FF
:1001500001C01D92A638B107E1F776D088C650CF0E
:100160008BB18F70806A8BB908958BB18F7080616D
:100170008BB9089582E591E0A8C582E591E055D557
:1001800080FD02C090E901C090E68BB18F70982B82
:100190009BB9089523B18CB1809590E080739070E5
:1001A000959587952095207E282B27FD17C024FF45
:1001B00003C020E031E014C026FF03C020E131E09D
:1001C0000FC023FF03C020E231E00AC025FF03C0B7
:1001D00021E331E005C010926A01089524E431E082
:1001E00080916A01882339F481E080936A01C90112
:1001F0006BE671E011C6089584B7877F84BF88E1FC
:100200000FB6F89480936000109260000FBE80E0FB
:1002100090E020E80FB6F89420936100809361008D
:100220000FBE84B18F7184B98DB18F7C8DB985B1CA
:10023000806E85B98EB180638EB98AB1806F8AB9BC
:100240008BB18F708BB913C1D7DF82E591E06BE67C
:1002500071E05AD48BB18F7080618BB978949ADF3A
:1002600082E591E020D482E591E09BD409D4F7CFD8
:10027000DA01923049F0933061F09130F9F4E8E915
:10028000F0E022E130E01EC0EAEAF0E02EE330E0E8
:1002900019C0813049F0813018F0823079F408C0FB
:1002A000E8EEF0E0849107C0ECEEF0E0849103C04A
:1002B000E6E0F1E08491282F30E004C0E0E0F0E0D7
:1002C00020E030E0ED93FC93C9010895382F282FEA
:1002D0002CC02093E900231721F4762F942F50E0AF
:1002E00006C07091EC009091ED005091F00091FFEC
:1002F0001BC08091EB008E7F8093EB008091ED001E
:100300008D7F8093ED008091EB0081608093EB0006
:100310007093EC009093ED005093F0008091EE000C
:1003200087FD02C080E008952F5F273090F2309360
:10033000E90081E0089580917E0188239CF404C047
:1003400080917D018823B9F08091E80082FFF8CF89
:100350008091E8008B778093E800089580917D017B
:10036000882349F08091E80080FFF8CF8091E80071
:100370008E778093E80008954091E4005091E50065
:1003800024E68091EC0080FF24C08091E80080FD8D
:100390001EC080917D01882311F482E0089585308C
:1003A00011F483E008958091EB0085FF02C081E0A5
:1003B00008958091E4009091E5008417950709F372
:1003C000222311F484E008952150AC01DACF80E0BB
:1003D00008958091E80082FFDCCFF9CFEF92FF9281
:1003E0000F931F934DD054D008ED10E0F801808199
:1003F0008F77808380818068808380818F7D8083F8
:10040000E7EDF0E080818068808319BC10927D0167
:100410001092790110927B0110927A0180EEE82E01
:10042000F12CF70180818B7F8083F80180818160CE
:10043000808380E060E042E049DFE1EEF0E080812F
:100440008E7F8083E2EEF0E0808181608083808116
:1004500088608083F70180818E7F8083F8018081AE
:10046000806180831F910F91FF90EF900895E7EDD9
:10047000F0E080818160808381E080937C01AECF59
:10048000E8EDF0E080818C7F80831092E200089597
:100490001092DA001092E10008951F920F920FB6A9
:1004A0000F920BB60F9211242F933F934F935F93AC
:1004B0006F937F938F939F93AF93BF93EF93FF932C
:1004C0008091E10082FF0AC08091E20082FF06C0B5
:1004D0008091E1008B7F8093E100D1D28091DA009E
:1004E00080FF1DC08091D80080FF19C08091DA0084
:1004F0008E7F8093DA008091D90080FF0CC08CE061
:1005000089BD8EE089BD09B400FEFDCF81E08093F6
:100510007D0126DE04C019BC10927D0126DE80918B
:10052000E10080FF18C08091E20080FF14C080913C
:10053000E2008E7F8093E2008091E20080618093F0
:10054000E2008091D80080628093D80019BC85E0D9
:1005500080937D0194D28091E10084FF2DC0809131
:10056000E20084FF29C08CE089BD8EE089BD09B41A
:1005700000FEFDCF8091D8008F7D8093D8008091C0
:10058000E1008F7E8093E1008091E2008F7E809376
:10059000E2008091E20081608093E2008091790125
:1005A000882331F48091E30087FD02C081E001C01F
:1005B00084E080937D0163D28091E10083FF22C0BB
:1005C0008091E20083FF1EC08091E100877F8093CD
:1005D000E10082E080937D01109279018091E10039
:1005E0008E7F8093E1008091E2008E7F8093E20015
:1005F0008091E20080618093E20080E060E042E070
:1006000065DE3DD2FF91EF91BF91AF919F918F91A8
:100610007F916F915F914F913F912F910F900BBE02
:100620000F900FBE0F901F9018959C014091840170
:10063000509185014617570718F4F90190E03DC025
:100640006115710511F0AB01F8CF8091E8008E774C
:100650008093E80040E050E0F0CF80917D01882356
:10066000F1F18530F1F18091E80083FF02C081E073
:1006700008958091E80082FD2CC08091E80080FF01
:100680001CC02091F2003091F30007C0819180934B
:10069000F100415050402F5F3F4F4115510519F077
:1006A0002830310598F390E02830310509F491E0C5
:1006B0008091E8008E778093E8004115510569F636
:1006C000992359F606C080917D01882341F0853039
:1006D00041F08091E80082FFF6CF80E0089582E04B
:1006E000089583E008959C01409184015091850113
:1006F0004617570718F4F90190E040C061157105DD
:1007000011F0AB01F8CF8091E8008E778093E8007C
:1007100040E050E0F0CF80917D01882309F440C093
:10072000853009F43FC08091E80083FF02C081E07A
:1007300008958091E80082FD2DC08091E80080FF3F
:100740001DC02091F2003091F30008C08491809385
:10075000F1003196415050402F5F3F4F41155105F8
:1007600019F02830310590F390E02830310509F474
:1007700091E08091E8008E778093E8004115510563
:1007800051F6992341F606C080917D01882341F0FE
:10079000853041F08091E80082FFF6CF80E0089537
:1007A00082E0089583E008950F931F93DF93CF9322
:1007B000CDB7DEB7AC970FB6F894DEBF0FBECDBF96
:1007C000EEE7F1E08091F100819321E0E638F20755
:1007D000C9F7D0DC8091E80083FF38C180917E01A9
:1007E00030917F01353009F487C0363040F4313024
:1007F000C9F1313070F0333009F028C133C03830DE
:1008000009F4F6C0393009F405C1363009F01EC1CB
:1008100097C0803821F0823809F018C108C0909143
:100820007A0180917B01882399F0926011C08091B8
:1008300082018F708093E9008091EB0090E025E0C9
:10084000969587952A95E1F7982F91701092E90077
:100850008091E800877F8093E8009093F1001092E8
:10086000F100D1C0882319F0823009F0EFC090E088
:100870008F719070009721F0029709F0E7C00CC0CB
:1008800080918001813009F0E1C010927B0133300A
:1008900069F580937B012AC080918001882331F51E
:1008A000209182012F7009F4D1C02093E90080913A
:1008B000EB0080FF1BC0333021F48091EB0080629D
:1008C00013C08091EB0080618093EB0081E090E0A9
:1008D00002C0880F991F2A95E2F78093EA001092D0
:1008E000EA008091EB0088608093EB001092E900B1
:1008F0008091E800877F8AC0882309F0A7C0109103
:1009000080011F770FB7F8948091E800877F80936C
:10091000E80011DD8091E80080FFFCCF8091E300CA
:100920008078812B8093E30080688093E30011231B
:1009300011F482E001C083E080937D010FBF86C087
:100940008058823008F082C08091800190918101AE
:1009500023E08C3D920709F033C083E08C838AE268
:100960008B837FB7F894DE0115966EE040E050E08F
:1009700011E2E62FF0E010935700849140FF03C08E
:1009800082958F706F5F8F70282F30E08A3018F05B
:10099000C901C79602C0C901C0968D939D934F5F50
:1009A0005F4F4431510529F77FBF8091E800877F71
:1009B0008093E800CE0103966AE270E036DE12C052
:1009C00060918201AE014F5F5F4F52DCBC01009726
:1009D00009F43CC08091E800877F8093E80089811A
:1009E0009A8181DE8091E8008B778093E8002EC0A9
:1009F000803861F58091E800877F8093E8008091DE
:100A000079018093F1008091E8008E778093E8006F
:100A100092DC1CC08823D1F4909180019230B0F414
:100A20008091E800877F8093E8009093790183DCD0
:100A300080917901882331F48091E30087FD02C021
:100A400081E001C084E080937D0197DB8091E80024
:100A500083FF0AC08091EB0080628093EB0080915D
:100A6000E800877F8093E800AC960FB6F894DEBF6D
:100A70000FBECDBFCF91DF911F910F9108950895C3
:100A80001F9380917D01882361F01091E9001092FD
:100A9000E9008091E80083FF01C086DE1F7010939B
:100AA000E9001F910895FC0180917D01843041F59A
:100AB00081899289A389B4890097A105B10501F1C3
:100AC00085818093E9008091E80082FF19C08091C0
:100AD000F2009091F300892B19F42FEF3FEF04C03F
:100AE0008091F100282F30E08091F2009091F30086
:100AF000892B41F48091E8008B778093E80002C055
:100B00002FEF3FEFC9010895FB012EE0DB011D929D
:100B10002A95E9F723E0238326E036E03187208712
:100B200027E935E033872287958784870895FC017C
:100B300084859585B8DF9C0197FF02C02EEF3FEFBB
:100B4000C90108950895FC0180917D01843021F54B
:100B500081899289A389B4890097A105B105E1F043
:100B600081818093E9008091F2009091F300892BBC
:100B7000A9F09091E8008091E8008E778093E800DA
:100B800095FD0CC0F9DB982F882349F48091E8008B
:100B90008E778093E80003C092E001C090E0892F37
:100BA0000895FC0180917D01843051F481899289FE
:100BB000A389B4890097A105B10511F0CF01C3CF76
:100BC00008951F93FC01162F80917D018430D9F484
:100BD00081899289A389B4890097A105B10599F00B
:100BE00081818093E9008091E80085FD08C08091B3
:100BF000E8008E778093E800BFDB882329F4109308
:100C0000F10080E001C082E01F910895282FFB01D0
:100C100084859585622FD5DF882319F420E030E0A4
:100C200002C02FEF3FEFC90108951F93CF93DF93C9
:100C3000EC010D96FC018BE0DF011D928A95E9F72E
:100C400011E08981181729F46A817B818C8152E037
:100C500010C08D81181731F46E817F81888552E034
:100C600030E008C08985181739F56A857B858C8541
:100C700053E030E8882311F440E001C044E020E074
:100C800088E090E003C02F5F880F991F86179707B1
:100C9000D0F3852F90E056E0880F991F5A95E1F721
:100CA00060E0311161E0682B42602295207F422B89
:100CB000812F0CDB882329F01F5F173009F0C1CF8B
:100CC00081E0DF91CF911F910895CF93DF93EC01E5
:100CD0008091E80083FF9DC0888190E0209182018F
:100CE000309183012817390709F093C080917F0163
:100CF000813269F0823220F4803209F08AC03CC02F
:100D0000823209F465C0833209F083C074C08091D7
:100D10007E01813A09F07DC08091E800877F809351
:100D2000E8008091E80080FFFCCF89899A89AB892F
:100D3000BC898093F100292F3A2F4B2F5527209300
:100D4000F1009D01442755272093F1008B2F99270F
:100D5000AA27BB278093F1008D898093F1008E89AB
:100D60008093F1008F898093F1008091E8008E7765
:100D70008093E800E0DA4DC080917E01813209F075
:100D800048C08091E800877F8093E8008091E80068
:100D900082FFFCCF8091F1009091F1002091F10051
:100DA0003091F100898B9A8B2B8B3C8B8091F100D9
:100DB0008D8B8091F1008E8B8091F1008F8B8091D3
:100DC000E8008B778093E800B6DACE01BBDE21C065
:100DD00080917E018132E9F48091E800877F8093E1
:100DE000E800A9DA80918001909181019E878D872A
:100DF000CE01A8DE0EC080917E01813251F4809137
:100E0000E800877F8093E80096DACE016091800148
:100E100099DEDF91CF910895EF92FF920F931F9388
:100E2000CF93DF937C018B01DB0113968C9181FDC5
:100E300003C0CFEFDFEF13C0C0E0D0E00BC0D8019C
:100E40001896ED91FC911997B8010995892B11F02D
:100E5000CFEFDFEFF70181917F01882381F7CE018A
:100E6000DF91CF911F910F91FF90EF900895F8942B
:020E7000FFCFB2
:100E72004A6F79737469636B20446F776E0D0A0051
:100E82004A6F79737469636B204C6566740D0A004E
:100E92004A6F79737469636B2052696768740D0ACB
:100EA200004A6F79737469636B205072657373655E
:100EB200640D0A004A6F79737469636B2055700D73
:100EC2000A000003100000041000000208000000E5
:0A0ED2000000000000000000000016
:00000001FF
