:10000000DBC00000F7C00000F5C00000F3C0000036
:10001000F1C00000EFC00000EDC00000EBC0000028
:10002000E9C00000E7C0000007C30000E3C0000013
:10003000E1C00000DFC00000DDC00000DBC0000048
:10004000D9C00000D7C00000D5C00000D3C0000058
:10005000D1C00000CFC00000CDC00000CBC0000068
:10006000C9C00000C7C00000C5C00000C3C0000078
:10007000C1C00000BFC00000BDC00000BBC0000088
:10008000B9C00000B7C00000B5C00000B3C0000098
:10009000B1C00000AFC0000005010902A1010901C3
:1000A000A100050919012903150025019503750112
:1000B000810295017505810105010930093116FF9D
:1000C000FF26010036FFFF460100950275088106F4
:1000D000C0C005010906A101050719E029E71500BF
:1000E00025017501950881029501750881010508B2
:1000F0001901290595057501910295017503910175
:100100001500256505071900296595067508810004
:10011000C01201100100000008EB034D2001000196
:1001200002000109023B00020100C0320904000084
:100130000103010100092111010001223F0007050F
:1001400081030800010904010001030102000921E3
:1001500011010001223A000705830308000104038E
:10016000090418034400650061006E00200043008C
:1001700061006D0065007200610000003A034C00F0
:1001800055004600410020004D006F0075007300CF
:100190006500200061006E00640020004B006500D7
:1001A000790062006F00610072006400200044006A
:1001B00065006D006F00000011241FBECFEFD0E27C
:1001C000DEBFCDBF11E0A0E0B1E0E6E3F2E100E088
:1001D0000BBF02C007900D92AE31B107D9F711E005
:1001E000AEE1B1E001C01D92A633B107E1F7E1D065
:1001F0000C94190905CF8BB18F70806A8BB9089563
:100200008BB18F7080618BB9089580910D019091B1
:100210000E01009729F0019790930E0180930D0134
:1002200080911C0190911D01009729F001979093F6
:100230001D0180931C0108950F931F93522F632F6C
:10024000D80143B12CB1209530E020733070359542
:1002500027954095407E422B2CB12095247030E0AC
:100260008050914019F524703070232B09F440C060
:10027000E52FF62F82E0808347FF02C084E003C0B1
:1002800044FF02C085E08283942F46FF02C086E0CF
:1002900003C043FF02C087E0828395FF02C088E06D
:1002A000828388E090E08D939C9322C0247030700C
:1002B000232BF1F4E52FF62F47FF02C08FEF03C089
:1002C00044FF02C081E08283942F46FF02C08FEF7B
:1002D00003C043FF02C081E0818395FF03C080819A
:1002E0008160808383E090E08D939C9381E001C0E6
:1002F00080E01F910F910895F9018050914061F4C1
:10030000808190E080FD90E181FD906882FD9064A5
:100310008BB18F70982B9BB9089580E091E029D61E
:100320008FE091E026C60F931F9380E091E0E9D51E
:10033000082F8FE091E0E5D59091E20094609093D2
:10034000E20010E090E00823192300FF02C090E6CD
:1003500001C090E98BB18F70982B9BB91F910F91C1
:10036000089584B7877F84BF88E10FB6F89480939F
:100370006000109260000FBE80E090E020E80FB6B1
:10038000F89420936100809361000FBE84B18F7157
:1003900084B98DB18F7C8DB985B1806E85B98EB1F0
:1003A00080638EB98AB1806F8AB98BB18F708BB937
:1003B0002DC1D7DF8BB18F7080618BB9789480E0CD
:1003C00091E0D3D48FE091E0D0D4BCD4F8CFDA015F
:1003D0009330C1F0943030F4913051F0923009F004
:1003E0003CC00BC0913219F1923209F036C029C0DD
:1003F000E1E1F1E022E130E034C0E3E2F1E02BE3BF
:1004000030E02FC0813049F0813018F0823029F57A
:100410000AC0EEE5F1E0849103C0E2E6F1E08491E8
:10042000282F30E01EC0ECE7F1E08491F9CF66237D
:1004300019F0EEE4F1E002C0E5E3F1E029E030E09C
:1004400010C0662329F0E8E9F0E02AE330E009C0B3
:10045000E2EDF0E02FE330E004C0E0E0F0E020E087
:1004600030E0ED93FC93C9010895382F282F2CC05C
:100470002093E900231721F4762F942F50E006C033
:100480007091EC009091ED005091F00091FF1BC035
:100490008091EB008E7F8093EB008091ED008D7F4B
:1004A0008093ED008091EB0081608093EB0070936E
:1004B000EC009093ED005093F0008091EE0087FDEA
:1004C00002C080E008952F5F273090F23093E9005A
:1004D00081E0089580912E0188239CF404C08091CE
:1004E0002D018823B9F08091E80082FFF8CF809138
:1004F000E8008B778093E800089580912D01882390
:1005000049F08091E80080FFF8CF8091E8008E7775
:100510008093E80008954091E4005091E50024E6BE
:100520008091EC0080FF24C08091E80080FD1EC017
:1005300080912D01882311F482E00895853011F413
:1005400083E008958091EB0085FF02C081E008956B
:100550008091E4009091E5008417950709F3222328
:1005600011F484E008952150AC01DACF80E00895C1
:100570008091E80082FFDCCFF9CFEF92FF920F93DA
:100580001F934DD054D008ED10E0F80180818F7793
:10059000808380818068808380818F7D8083E7ED88
:1005A000F0E080818068808319BC10922D01109248
:1005B000290110922B0110922A0180EEE82EF12CD5
:1005C000F70180818B7F8083F80180818160808347
:1005D00080E060E042E049DFE1EEF0E080818E7F84
:1005E0008083E2EEF0E0808181608083808188609A
:1005F0008083F70180818E7F8083F8018081806114
:1006000080831F910F91FF90EF900895E7EDF0E048
:1006100080818160808381E080932C01AECFE8ED02
:10062000F0E080818C7F80831092E2000895109228
:10063000DA001092E10008951F920F920FB60F9208
:100640000BB60F9211242F933F934F935F936F93A9
:100650007F938F939F93AF93BF93EF93FF9380917B
:10066000E10082FF0AC08091E20082FF06C0809113
:10067000E1008B7F8093E100C8DD8091DA0080FF8C
:100680001DC08091D80080FF19C08091DA008E7F54
:100690008093DA008091D90080FF0CC08CE089BD86
:1006A0008EE089BD09B400FEFDCF81E080932D016D
:1006B000A2DD04C019BC10922D01A2DD8091E100E1
:1006C00080FF18C08091E20080FF14C08091E2009A
:1006D0008E7F8093E2008091E20080618093E2004F
:1006E0008091D80080628093D80019BC85E0809307
:1006F0002D0127D38091E10084FF2DC08091E2007D
:1007000084FF29C08CE089BD8EE089BD09B400FE5C
:10071000FDCF8091D8008F7D8093D8008091E1003B
:100720008F7E8093E1008091E2008F7E8093E200D3
:100730008091E20081608093E2008091290188230A
:1007400031F48091E30087FD02C081E001C084E0C4
:1007500080932D01F6D28091E10083FF22C0809129
:10076000E20083FF1EC08091E100877F8093E1005B
:1007700082E080932D01109229018091E1008E7F0B
:100780008093E1008091E2008E7F8093E20080916F
:10079000E20080618093E20080E060E042E065DE9C
:1007A000D0D2FF91EF91BF91AF919F918F917F91A7
:1007B0006F915F914F913F912F910F900BBE0F90D2
:1007C0000FBE0F901F9018959C01409134015091DD
:1007D00035014617570718F4F90190E03DC061153F
:1007E000710511F0AB01F8CF8091E8008E7780930E
:1007F000E80040E050E0F0CF80912D018823F1F136
:100800008530F1F18091E80083FF02C081E0089516
:100810008091E80082FD2CC08091E80080FF1CC020
:100820002091F2003091F30007C081918093F10094
:10083000415050402F5F3F4F4115510519F028306E
:10084000310598F390E02830310509F491E080916A
:10085000E8008E778093E8004115510569F69923E9
:1008600059F606C080912D01882341F0853041F072
:100870008091E80082FFF6CF80E0089582E008953D
:1008800083E008959C016115710529F48091E800C9
:100890008B778093E800F90122C080912D01882395
:1008A00071F1853071F18091E80083FF02C081E031
:1008B00008958091E80082FFF0CF06C08091F1009A
:1008C00081936150704031F08091F2009091F3007B
:1008D000892BA1F78091E8008B778093E800611560
:1008E0007105D9F606C080912D01882341F085302D
:1008F00041F08091E80080FFF6CF80E0089582E02B
:10090000089583E008959C01409134015091350190
:100910004617570718F4F90190E040C061157105BA
:1009200011F0AB01F8CF8091E8008E778093E8005A
:1009300040E050E0F0CF80912D01882309F440C0C1
:10094000853009F43FC08091E80083FF02C081E058
:1009500008958091E80082FD2DC08091E80080FF1D
:100960001DC02091F2003091F30008C08491809363
:10097000F1003196415050402F5F3F4F41155105D6
:1009800019F02830310590F390E02830310509F452
:1009900091E08091E8008E778093E8004115510541
:1009A00051F6992341F606C080912D01882341F02C
:1009B000853041F08091E80082FFF6CF80E0089515
:1009C00082E0089583E00895BF92CF92DF92EF9284
:1009D000FF920F931F93CF93DF93182F092F7B0163
:1009E0006A0199DDB82E8823B1F5812F902F9C01E3
:1009F000E901C114D10439F0F60180819181E81A2E
:100A0000F90AC80FD91F00E010E022C08091E80069
:100A100085FD16C08091E8008E778093E80092D122
:100A2000C114D10449F0F60180819181800F911F9A
:100A30009183808385E010C06EDD882349F00CC06F
:100A400089918093F1000894E108F1080F5F1F4F2E
:100A5000E114F104D9F68B2DDF91CF911F910F9105
:100A6000FF90EF90DF90CF90BF9008950F931F936A
:100A7000DF93CF93CDB7DEB7AC970FB6F894DEBF58
:100A80000FBECDBFEEE2F1E08091F100819321E055
:100A9000E633F207C9F741DC8091E80083FF38C1F3
:100AA00080912E0130912F01353009F487C0363006
:100AB00040F43130C9F1313070F0333009F028C1E1
:100AC00033C0383009F4F6C0393009F405C1363086
:100AD00009F01EC197C0803821F0823809F018C192
:100AE00008C090912A0180912B01882399F092608F
:100AF00011C0809132018F708093E9008091EB00EA
:100B000090E025E0969587952A95E1F7982F9170CA
:100B10001092E9008091E800877F8093E80090932D
:100B2000F1001092F100D1C0882319F0823009F051
:100B3000EFC090E08F719070009721F0029709F05C
:100B4000E7C00CC080913001813009F0E1C0109203
:100B50002B01333069F580932B012AC0809130013D
:100B6000882331F5209132012F7009F4D1C02093F0
:100B7000E9008091EB0080FF1BC0333021F48091AD
:100B8000EB00806213C08091EB0080618093EB00EA
:100B900081E090E002C0880F991F2A95E2F78093C8
:100BA000EA001092EA008091EB0088608093EB00ED
:100BB0001092E9008091E800877F8AC0882309F0BD
:100BC000A7C0109130011F770FB7F8948091E8000B
:100BD000877F8093E8007EDC8091E80080FFFCCF77
:100BE0008091E3008078812B8093E300806880937C
:100BF000E300112311F482E001C083E080932D0112
:100C00000FBF86C08058823008F082C080913001CA
:100C10009091310123E08C3D920709F033C083E0CD
:100C20008C838AE28B837FB7F894DE0115966EE0A1
:100C300040E050E011E2E62FF0E01093570084917D
:100C400040FF03C082958F706F5F8F70282F30E058
:100C50008A3018F0C901C79602C0C901C0968D93A9
:100C60009D934F5F5F4F4431510529F77FBF8091BE
:100C7000E800877F8093E800CE0103966AE270E087
:100C8000A3DD12C060913201AE014F5F5F4F9FDB69
:100C9000BC01009709F43CC08091E800877F8093F5
:100CA000E80089819A812FDE8091E8008B7780931C
:100CB000E8002EC0803861F58091E800877F80933E
:100CC000E800809129018093F1008091E8008E77FF
:100CD0008093E800FFDB1CC08823D1F490913001A1
:100CE0009230B0F48091E800877F8093E800909381
:100CF0002901F0DB80912901882331F48091E30000
:100D000087FD02C081E001C084E080932D010BDBF0
:100D10008091E80083FF0AC08091EB00806280939D
:100D2000EB008091E800877F8093E800AC960FB6D7
:100D3000F894DEBF0FBECDBFCF91DF911F910F9111
:100D4000089508951F9380912D01882361F01091DB
:100D5000E9001092E9008091E80083FF01C086DE7F
:100D60001F701093E9001F9108954F925F926F9248
:100D70007F928F929F92AF92BF92CF92DF92EF922B
:100D8000FF920F931F93DF93CF9300D00F92CDB7B5
:100D9000DEB77C016DB67EB680912D01843009F0FE
:100DA00097C02091E4003091E500F701818592859C
:100DB0008217930709F48CC081818093E9008091A8
:100DC000E80085FF85C05DB64EB6478150E08DB71F
:100DD0009EB7841B950B0FB6F8949EBF0FBE8DBFB8
:100DE0000DB71EB70F5F1F4F19821B821A82C02ECC
:100DF000912EC80160E070E050E014D2C701BE013E
:100E00006F5F7F4F40E098018E010E5F1F4F14DA35
:100E1000882EF70183859485892B19F4AA24BB2495
:100E20000BC020E0F70185859685892B09F021E02C
:100E300081E02827A22EBB24F70105811681011528
:100E4000110511F4DD2412C04A815B818C2D992D8E
:100E5000B801D2D1DD24009711F0DD24D394F7013D
:100E60004781C8016C2D792D50E0D3D18A819B81B7
:100E7000892BF9F0882021F4DD2011F4AB28C9F08A
:100E8000F701838594859687858781818093E90022
:100E90008981882311F08093F1006A817B818C2DF8
:100EA000992D40E050E090DD8091E8008E778093AE
:100EB000E8008091E4009091E500F7019287818736
:100EC000252D342DC9010FB6F8949EBF0FBE8DBFDE
:100ED0000FB6F8947EBE0FBE6DBE0F900F900F90B0
:100EE000CF91DF911F910F91FF90EF90DF90CF9006
:100EF000BF90AF909F908F907F906F905F904F903A
:100F00000895CF93DF93DC010896FC0187E0EF01A1
:100F100019928A95E9F781E018968C93189784EFD7
:100F200091E01C969C938E931B9711963C91119780
:100F300012966D917C91139714968C91882311F4DD
:100F400040E001C044E020E088E090E003C02F5F73
:100F5000880F991F86179707D0F342602295207F4C
:100F6000422B832F61EC81DA811181E0DF91CF91F7
:100F700008956F927F928F929F92AF92BF92CF927D
:100F8000DF92EF92FF920F931F93DF93CF9300D0E6
:100F90000F92CDB7DEB76C016DB67EB68091E800DA
:100FA00083FF13C1F601808190E0209132013091DE
:100FB00033012817390709F008C180912F018330C8
:100FC00009F4ABC0843030F4813071F0823009F024
:100FD000FCC0DFC08A3009F4C4C08B3009F4AEC055
:100FE000893009F0F2C056C080912E01813A09F093
:100FF000ECC09DB68EB61B821A8280913001109192
:1010000031018983F601478150E08DB79EB7841B7B
:10101000950B0FB6F8949EBF0FBE8DBFEDB6FEB612
:101020000894E11CF11CBE2CAF2CC70160E070E0FD
:1010300050E0F8D01150C601BE016F5F7F4F412FC5
:1010400097018E010E5F1F4FF7D8F601258136817B
:101050002115310529F04781C901B70150E0D9D0E8
:101060001092E9008091E800877F8093E8006A8110
:101070007B818B2D9A2DA8DB8091E8008B77809364
:10108000E800292D382DC9010FB6F8949EBF0FBE78
:101090008DBF9BC080912E01813209F096C09DB614
:1010A0008EB60091340110913501A0903001B090BE
:1010B00031018DB79EB7801B910B0FB6F8949EBF80
:1010C0000FBE8DBFEDB6FEB60894E11CF11C8091F9
:1010D000E800877F8093E800C701B801D3DB8091E7
:1010E000E8008E778093E80080E090E0AA2011F07D
:1010F00081E090E0BA94E80EF91E081B190BC601B6
:101100006A2D4B2D9701F8D8892D982D9C010FB68B
:10111000F8943EBF0FBE2DBF58C080912E01813A7A
:1011200009F053C08091E800877F8093E8008091A8
:10113000E80080FFFCCFF60180853FC080912E0142
:10114000813209F042C08091E800877F8093E800F7
:10115000C1D990E080913001811191E0F601908732
:1011600034C080912E01813281F58091E800877F23
:101170008093E800AFD98091300190913101807067
:1011800076E0969587957A95E1F7F60194878387BF
:101190001CC080912E01813AC1F48091E800877FC4
:1011A0008093E8008091E80080FFFCCFF601838502
:1011B000948596958795969587958093F100809173
:1011C000E8008E778093E80085D90FB6F8947EBE4C
:1011D0000FBE6DBE0F900F900F90CF91DF911F91BA
:1011E0000F91FF90EF90DF90CF90BF90AF909F90C6
:1011F0008F907F906F900895FB01DC0104C08D916A
:101200000190801921F441505040C8F7881B990B78
:101210000895FB01DC0102C001900D924150504045
:10122000D8F70895DC0101C06D9341505040E0F7BC
:061230000895F894FFCFC1
:1012360000010800001E0108000000000000000177
:0E124600030800002601030000000000000065
:00000001FF
