:10000000C9C00000E5C00000E3C00000E1C000007E
:10001000DFC00000DDC00000DBC00000D9C0000070
:10002000D7C00000D5C00000D4C20000D1C000007D
:10003000CFC00000CDC00000CBC00000C9C0000090
:10004000C7C00000C5C00000C3C00000C1C00000A0
:10005000BFC00000BDC00000BBC00000B9C00000B0
:10006000B7C00000B5C00000B3C00000B1C00000C0
:10007000AFC00000ADC00000ABC00000A9C00000D0
:10008000A7C00000A5C00000A3C00000A1C00000E0
:100090009FC000009DC0000005010902A1010901E7
:1000A000A100050919012903150025019503750112
:1000B000810295017505810105010930093116FF9D
:1000C000FF26010036FFFF460100950275088106F4
:1000D000C0C012011001EF020108EB036220010011
:1000E0000102DC0109025F00030100C032080B00BD
:1000F00002020201000904000001020201000524BD
:1001000000100104240206052406000107058203ED
:100110000800FF09040100020A00000007050402AC
:100120001000010705830210000109040200010309
:10013000010200092111010001223A000705810393
:100140000800010403090418034400650061006EFF
:10015000002000430061006D006500720061000036
:100160000030034C0055004600410020004300448D
:10017000004300200061006E00640020004D006F0D
:10018000007500730065002000440065006D006F7D
:100190000000000011241FBECFEFD0E2DEBFCDBFB4
:1001A00011E0A0E0B1E0E0EEF4E100E00BBF02C03E
:1001B00007900D92AA37B107D9F711E0AAE7B1E08D
:1001C00001C01D92AB38B107E1F7CAD00C946E0A9A
:1001D00017CF8BB18F70806A8BB908958BB18F70F8
:1001E00080618BB908958091770190917801009793
:1001F00029F00197909378018093770108950F93E8
:100200001F93D801F90123B18CB1809590E08073E0
:100210009070959587952095207E282B3CB127FFDF
:1002200002C08FEF03C024FF02C081E08283922FBF
:1002300026FF02C08FEF03C023FF02C081E081834D
:1002400095FF03C080818160808332FD03C080817F
:100250008260808383E090E08D939C9381E01F9186
:100260000F910895089582E591E02AD68AE691E0FB
:10027000D2C70F931F938AE691E095D7082F82E5A6
:1002800091E0CED59091E20094609093E20010E06E
:1002900090E00823192300FF02C090E601C090E916
:1002A0008BB18F70982B9BB91F910F91089523B13B
:1002B0008CB1809590E0807390709595879520958E
:1002C000207E282B27FD17C024FF03C060E071E0CB
:1002D00014C026FF03C060E171E00FC023FF03C01C
:1002E00060E271E00AC025FF03C061E371E005C070
:1002F00010927A01089564E471E080917A01882374
:1003000031F481E080937A0182E591E06BC5089534
:1003100084B7877F84BF88E10FB6F894809360002C
:10032000109260000FBE80E090E020E80FB6F894D5
:1003300020936100809361000FBE84B18F7184B9F6
:100340008DB18F7C8DB985B1806E85B98EB180639A
:100350008EB98AB1806F8AB98BB18F708BB923C186
:10036000D7DF8BB18F7080618BB97894A0DF82E585
:1003700091E0C8D482E591E025D58AE691E047D6A0
:10038000AED4F4CFDA019330B1F0943028F4913048
:1003900041F0923079F50AC0913211F1923251F563
:1003A00024C0E2EDF0E022E130E028C0E4EEF0E02D
:1003B0002FE530E023C0813049F0813018F08230E1
:1003C000C9F40AC0E3E4F1E0849103C0E7E4F1E09A
:1003D0008491282F30E012C0E1E6F1E08491F9CF5A
:1003E000E3E3F1E029E030E009C0E8E9F0E02AE3E6
:1003F00030E004C0E0E0F0E020E030E0ED93FC937A
:10040000C9010895382F282F2CC02093E900231705
:1004100021F4762F942F50E006C07091EC0090915B
:10042000ED005091F00091FF1BC08091EB008E7F9A
:100430008093EB008091ED008D7F8093ED008091A3
:10044000EB0081608093EB007093EC009093ED00E3
:100450005093F0008091EE0087FD02C080E0089587
:100460002F5F273090F23093E90081E0089580916A
:10047000830188239CF404C0809182018823B9F011
:100480008091E80082FFF8CF8091E8008B7780931D
:10049000E800089580918201882349F08091E80066
:1004A00080FFF8CF8091E8008E778093E800089570
:1004B0004091E4005091E50024E68091EC0080FF3B
:1004C00024C08091E80080FD1EC0809182018823B5
:1004D00011F482E00895853011F483E0089580914D
:1004E000EB0085FF02C081E008958091E4009091C7
:1004F000E5008417950709F3222311F484E0089599
:100500002150AC01DACF80E008958091E80082FFAD
:10051000DCCFF9CFEF92FF920F931F934DD054D0C1
:1005200008ED10E0F80180818F77808380818068FA
:10053000808380818F7D8083E7EDF0E0808180681B
:10054000808319BC1092820110927E01109280016A
:1005500010927F0180EEE82EF12CF70180818B7FD5
:100560008083F80180818160808380E060E042E0E8
:1005700049DFE1EEF0E080818E7F8083E2EEF0E003
:10058000808181608083808188608083F7018081A1
:100590008E7F8083F8018081806180831F910F911D
:1005A000FF90EF900895E7EDF0E080818160808317
:1005B00081E080938101AECFE8EDF0E080818C7F17
:1005C00080831092E20008951092DA001092E10008
:1005D00008951F920F920FB60F920BB60F9211242F
:1005E0002F933F934F935F936F937F938F939F933B
:1005F000AF93BF93EF93FF938091E10082FF0AC016
:100600008091E20082FF06C08091E1008B7F8093A1
:10061000E100E9DD8091DA0080FF1DC08091D80003
:1006200080FF19C08091DA008E7F8093DA0080917C
:10063000D90080FF0CC08CE089BD8EE089BD09B473
:1006400000FEFDCF81E080938201C3DD04C019BCB0
:1006500010928201C3DD8091E10080FF18C080917B
:10066000E20080FF14C08091E2008E7F8093E20060
:100670008091E20080618093E2008091D8008062E6
:100680008093D80019BC85E08093820127D38091A4
:10069000E10084FF2DC08091E20084FF29C08CE03E
:1006A00089BD8EE089BD09B400FEFDCF8091D800E0
:1006B0008F7D8093D8008091E1008F7E8093E10050
:1006C0008091E2008F7E8093E2008091E200816061
:1006D0008093E20080917E01882331F48091E300D1
:1006E00087FD02C081E001C084E080938201F6D2E0
:1006F0008091E10083FF22C08091E20083FF1EC051
:100700008091E100877F8093E10082E08093820105
:1007100010927E018091E1008E7F8093E1008091B4
:10072000E2008E7F8093E2008091E20080618093FE
:10073000E20080E060E042E065DED0D2FF91EF9120
:10074000BF91AF919F918F917F916F915F914F91E9
:100750003F912F910F900BBE0F900FBE0F901F90E7
:1007600018959C014091890150918A0146175707BD
:1007700018F4F90190E03DC06115710511F0AB016D
:10078000F8CF8091E8008E778093E80040E050E059
:10079000F0CF809182018823F1F18530F1F18091D1
:1007A000E80083FF02C081E008958091E80082FDA7
:1007B0002CC08091E80080FF1CC02091F200309195
:1007C000F30007C081918093F100415050402F5FAA
:1007D0003F4F4115510519F02830310598F390E04D
:1007E0002830310509F491E08091E8008E778093FC
:1007F000E8004115510569F6992359F606C0809124
:100800008201882341F0853041F08091E80082FF29
:10081000F6CF80E0089582E0089583E008959C017A
:100820006115710529F48091E8008B778093E800C9
:10083000F90122C080918201882371F1853071F124
:100840008091E80083FF02C081E008958091E80074
:1008500082FFF0CF06C08091F1008193615070401B
:1008600031F08091F2009091F300892BA1F78091F3
:10087000E8008B778093E80061157105D9F606C012
:1008800080918201882341F0853041F08091E80019
:1008900080FFF6CF80E0089582E0089583E0089518
:1008A0009C014091890150918A014617570718F41D
:1008B000F90190E040C06115710511F0AB01F8CF6E
:1008C0008091E8008E778093E80040E050E0F0CF20
:1008D00080918201882309F440C0853009F43FC02B
:1008E0008091E80083FF02C081E008958091E800D4
:1008F00082FD2DC08091E80080FF1DC02091F20094
:100900003091F30008C084918093F10031964150FA
:1009100050402F5F3F4F4115510519F028303105E8
:1009200090F390E02830310509F491E08091E800DF
:100930008E778093E8004115510551F6992341F6D1
:1009400006C080918201882341F0853041F080917A
:10095000E80082FFF6CF80E0089582E0089583E00A
:100960000895BF92CF92DF92EF92FF920F931F9361
:10097000CF93DF93182F092F7B016A0199DDB82EE1
:100980008823B1F5812F902F9C01E901C114D10476
:1009900039F0F60180819181E81AF90AC80FD91F50
:1009A00000E010E022C08091E80085FD16C0809133
:1009B000E8008E778093E80092D1C114D10449F009
:1009C000F60180819181800F911F9183808385E062
:1009D00010C06EDD882349F00CC089918093F1002E
:1009E0000894E108F1080F5F1F4FE114F104D9F6F4
:1009F0008B2DDF91CF911F910F91FF90EF90DF90A2
:100A0000CF90BF9008950F931F93DF93CF93CDB7EF
:100A1000DEB7AC970FB6F894DEBF0FBECDBFE3E8EC
:100A2000F1E08091F100819321E0EB38F207C9F702
:100A30001ADC8091E80083FF38C1809183013091F6
:100A40008401353009F487C0363040F43130C9F1C3
:100A5000313070F0333009F028C133C0383009F438
:100A6000F6C0393009F405C1363009F01EC197C00F
:100A7000803821F0823809F018C108C090917F01B8
:100A800080918001882399F0926011C08091870144
:100A90008F708093E9008091EB0090E025E09695BF
:100AA00087952A95E1F7982F91701092E90080912F
:100AB000E800877F8093E8009093F1001092F100A6
:100AC000D1C0882319F0823009F0EFC090E08F7117
:100AD0009070009721F0029709F0E7C00CC0809158
:100AE0008501813009F0E1C010928001333069F551
:100AF000809380012AC080918501882331F520915F
:100B000087012F7009F4D1C02093E9008091EB0098
:100B100080FF1BC0333021F48091EB00806213C052
:100B20008091EB0080618093EB0081E090E002C057
:100B3000880F991F2A95E2F78093EA001092EA0045
:100B40008091EB0088608093EB001092E900809127
:100B5000E800877F8AC0882309F0A7C0109185012B
:100B60001F770FB7F8948091E800877F8093E800A3
:100B70007EDC8091E80080FFFCCF8091E3008078EC
:100B8000812B8093E30080688093E300112311F4AC
:100B900082E001C083E0809382010FBF86C080584D
:100BA000823008F082C0809185019091860123E017
:100BB0008C3D920709F033C083E08C838AE28B83FB
:100BC0007FB7F894DE0115966EE040E050E011E248
:100BD000E62FF0E010935700849140FF03C0829508
:100BE0008F706F5F8F70282F30E08A3018F0C90146
:100BF000C79602C0C901C0968D939D934F5F5F4F0A
:100C00004431510529F77FBF8091E800877F8093A9
:100C1000E800CE0103966AE270E0A3DD12C06091A5
:100C20008701AE014F5F5F4FADDBBC01009709F458
:100C30003CC08091E800877F8093E80089819A8199
:100C40002FDE8091E8008B778093E8002EC08038FB
:100C500061F58091E800877F8093E80080917E01B4
:100C60008093F1008091E8008E778093E800FFDBAD
:100C70001CC08823D1F4909185019230B0F480910A
:100C8000E800877F8093E80090937E01F0DB8091FD
:100C90007E01882331F48091E30087FD02C081E06A
:100CA00001C084E080938201E4DA8091E80083FF50
:100CB0000AC08091EB0080628093EB008091E80095
:100CC000877F8093E800AC960FB6F894DEBF0FBE26
:100CD000CDBFCF91DF911F910F91089508951F937C
:100CE00080918201882361F01091E9001092E9005F
:100CF0008091E80083FF01C086DE1F701093E90039
:100D00001F910895FC0180918201843041F5818911
:100D10009289A389B4890097A105B10501F1858164
:100D20008093E9008091E80082FF19C08091F20071
:100D30009091F300892B19F42FEF3FEF04C08091BD
:100D4000F100282F30E08091F2009091F300892B80
:100D500041F48091E8008B778093E80002C02FEF88
:100D60003FEFC90108950895FC018091820184300C
:100D700021F581899289A389B4890097A105B105DC
:100D8000E1F081818093E9008091F2009091F3007D
:100D9000892BA9F09091E8008091E8008E778093EC
:100DA000E80095FD0CC084DB982F882349F48091DE
:100DB000E8008E778093E80003C092E001C090E0E5
:100DC000892F0895FC0180918201843051F481893A
:100DD0009289A389B4890097A105B10511F0CF01CB
:100DE000C3CF0895FC01809182018430B9F48189D8
:100DF0009289A389B4890097A105B10579F0818111
:100E00008093E900DB010D900020E9F71197A61B04
:100E1000B70BCB01BD0140E050E0A3CD82E00895C7
:100E20001F93CF93DF93EC010D96FC018BE0DF0164
:100E30001D928A95E9F711E08981181729F46A81D2
:100E40007B818C8152E010C08D81181731F46E8146
:100E50007F81888552E030E008C08985181739F510
:100E60006A857B858C8553E030E8882311F440E067
:100E700001C044E020E088E090E003C02F5F880FCD
:100E8000991F86179707D0F3852F90E056E0880FBB
:100E9000991F5A95E1F760E0311161E0682B4260DB
:100EA0002295207F422B812FADDA882329F01F5F06
:100EB000173009F0C1CF81E0DF91CF911F910895E4
:100EC000CF93DF93EC018091E80083FF9DC0888180
:100ED00090E020918701309188012817390709F0A7
:100EE00093C080918401813269F0823220F4803293
:100EF00009F08AC03CC0823209F465C0833209F02F
:100F000083C074C080918301813A09F07DC08091D3
:100F1000E800877F8093E8008091E80080FFFCCFA5
:100F200089899A89AB89BC898093F100292F3A2F4E
:100F30004B2F55272093F1009D01442755272093DF
:100F4000F1008B2F9927AA27BB278093F1008D8969
:100F50008093F1008E898093F1008F898093F10056
:100F60008091E8008E778093E80081DA4DC080910F
:100F70008301813209F048C08091E800877F809327
:100F8000E8008091E80082FFFCCF8091F100909111
:100F9000F1002091F1003091F100898B9A8B2B8B1D
:100FA0003C8B8091F1008D8B8091F1008E8B809134
:100FB000F1008F8B8091E8008B778093E80057DAFF
:100FC000CE01D1DE21C0809183018132E9F480918C
:100FD000E800877F8093E8004ADA8091850190914C
:100FE00086019E878D87CE01BEDE0EC08091830173
:100FF000813251F48091E800877F8093E80037DAEE
:10100000CE0160918501AFDEDF91CF9108954F92BF
:101010005F926F927F928F929F92AF92BF92CF9288
:10102000DF92EF92FF920F931F93DF93CF9300D045
:101030000F92CDB7DEB77C016DB67EB6809182018E
:10104000843009F097C02091E4003091E500F70169
:10105000818592858217930709F48CC081818093E2
:10106000E9008091E80085FF85C05DB64EB64781F6
:1010700050E08DB79EB7841B950B0FB6F8949EBFBA
:101080000FBE8DBF0DB71EB70F5F1F4F19821B829A
:101090001A82C02E912EC80160E070E050E017D295
:1010A000C701BE016F5F7F4F40E098018E010E5F68
:1010B0001F4FA5D8882EF70183859485892B19F4B5
:1010C000AA24BB240BC020E0F70185859685892BD7
:1010D00009F021E081E02827A22EBB24F701058139
:1010E00016810115110511F4DD2412C04A815B81BE
:1010F0008C2D992DB801D5D1DD24009711F0DD2478
:10110000D394F7014781C8016C2D792D50E0D6D1D9
:101110008A819B81892BF9F0882021F4DD2011F44C
:10112000AB28C9F0F70183859485968785878181EF
:101130008093E9008981882311F08093F1006A810E
:101140007B818C2D992D40E050E00BDC8091E800F4
:101150008E778093E8008091E4009091E500F7019C
:1011600092878187252D342DC9010FB6F8949EBF33
:101170000FBE8DBF0FB6F8947EBE0FBE6DBE0F9032
:101180000F900F90CF91DF911F910F91FF90EF90F3
:10119000DF90CF90BF90AF909F908F907F906F9097
:1011A0005F904F900895CF93DF93DC010896FC0188
:1011B00087E0EF0119928A95E9F781E018968C9300
:1011C000189784EF91E01C969C938E931B97119631
:1011D0003C91119712966D917C91139714968C9176
:1011E000882311F440E001C044E020E088E090E072
:1011F00003C02F5F880F991F86179707D0F34260AF
:101200002295207F422B832F61ECFCD8811181E055
:10121000DF91CF9108956F927F928F929F92AF92BC
:10122000BF92CF92DF92EF92FF920F931F93DF93C3
:10123000CF9300D00F92CDB7DEB76C016DB67EB6FE
:101240008091E80083FF16C1F601808190E0209133
:101250008701309188012817390709F00BC1809167
:101260008401833009F4ADC0843030F4813071F0F2
:10127000823009F0FFC0E1C08A3009F4C6C08B306B
:1012800009F4B0C0893009F0F5C057C080918301DE
:10129000813A09F0EFC09DB68EB61B821A8280910A
:1012A0008501109186018983F601478150E08DB751
:1012B0009EB7841B950B0FB6F8949EBF0FBE8DBFD3
:1012C000EDB6FEB60894E11CF11CBE2CAF2CC70194
:1012D00060E070E050E0FBD01150C601BE016F5FCE
:1012E0007F4F412F97018E010E5F1F4F0E94FF001D
:1012F000F601258136812115310529F04781C90183
:10130000B70150E0DBD01092E9008091E800877FC0
:101310008093E8006A817B818B2D9A2D22DA80915F
:10132000E8008B778093E800292D382DC9010FB68E
:10133000F8949EBF0FBE8DBF9DC080918301813206
:1013400009F098C09DB68EB60091890110918A016E
:10135000A0908501B09086018DB79EB7801B910B40
:101360000FB6F8949EBF0FBE8DBFEDB6FEB60894C3
:10137000E11CF11C8091E800877F8093E800C701A1
:10138000B8014DDA8091E8008E778093E80080E024
:1013900090E0AA2011F081E090E0BA94E80EF91EE6
:1013A000081B190BC6016A2D4B2D97010E943201B3
:1013B000892D982D9C010FB6F8943EBF0FBE2DBF0E
:1013C00059C080918301813A09F054C08091E800AE
:1013D000877F8093E8008091E80080FFFCCFF601D2
:1013E00080853FC080918301813209F043C08091A4
:1013F000E800877F8093E8003AD890E080918501EB
:10140000811191E0F601908735C08091830181328E
:1014100089F58091E800877F8093E80028D8809143
:10142000850190918601807076E0969587957A95F2
:10143000E1F7F601948783871DC080918301813A8B
:10144000C9F48091E800877F8093E8008091E800EC
:1014500080FFFCCFF60183859485969587959695B8
:1014600087958093F1008091E8008E778093E80063
:101470000E9437020FB6F8947EBE0FBE6DBE0F906D
:101480000F900F90CF91DF911F910F91FF90EF90F0
:10149000DF90CF90BF90AF909F908F907F906F9094
:1014A0000895FB01DC0104C08D910190801921F4A5
:1014B00041505040C8F7881B990B0895FB01DC018F
:1014C00002C001900D9241505040D8F70895DC01C0
:1014D00001C06D9341505040E0F70895F894FFCF5C
:1014E0004A6F79737469636B20446F776E0D0A00DD
:1014F0004A6F79737469636B204C6566740D0A00DA
:101500004A6F79737469636B2052696768740D0A56
:10151000004A6F79737469636B20507265737365E9
:10152000640D0A004A6F79737469636B2055700DFE
:101530000A00000310000004100000020800000070
:101540000000000000000000000002010800007B15
:0A155000010300000000000000008D
:00000001FF
