:10000000C4C00000E0C00000DEC00000DCC0000092
:10001000DAC00000D8C00000D6C00000D4C0000084
:10002000D2C00000D0C0000082C7000043C700005B
:10003000CAC00000C8C00000C6C00000C4C00000A4
:10004000C2C00000C0C00000BEC00000BCC00000B4
:10005000BAC00000B8C00000B6C00000B4C00000C4
:10006000B2C00000B0C00000AEC00000ACC00000D4
:10007000AAC00000A8C00000A6C00000A4C00000E4
:10008000A2C00000A0C000009EC000009CC00000F4
:100090009AC0000098C0000005010906A1010507EB
:1000A00019E029E7150025017501950881029501E0
:1000B0007508810105081901290595057501910249
:1000C000950175039101150025650507190029653E
:1000D000950675088100C01201100100000008EBB0
:1000E00003612001000102DC010902390002010064
:1000F0008032090400000208065000070583024010
:100100000001070504024000010904010001030188
:100110000100092111010001223F000705810308A8
:1001200000010403090418034400650061006E0027
:100130002000430061006D00650072006100000056
:1001400048034C0055004600410020004D0061006E
:10015000730073002000530074006F007200610090
:1001600067006500200061006E00640020004B0005
:100170006500790062006F00610072006400200079
:10018000440065006D006F00000011241FBECFEF1A
:10019000D0E2DEBFCDBF11E0A0E0B1E0EAE4F0E2E2
:1001A00000E00BBF02C007900D92AC37B107D9F742
:1001B00011E0ACE7B1E001C01D92A139B107E1F750
:1001C000CAD00C9423101CCF8BB18F70806A8BB96E
:1001D00008958BB18F7080618BB90895809144012F
:1001E00090914501009729F00197909345018093E4
:1001F000440108950F931F93D801F90123B18CB1E5
:10020000809590E080739070959587952095207EDD
:10021000282B3CB182E0808327FF02C084E003C02A
:1002200024FF02C085E08283922F26FF02C086E071
:1002300003C023FF02C087E0828395FF02C088E0ED
:10024000828332FD02C089E0828388E090E08D9352
:100250009C9380E01F910F910895F901808190E0B7
:1002600080FD90E181FD906882FD90648BB18F707C
:10027000982B9BB908952BB12F7020622BB90FD406
:100280009BB19F7090669BB9089580E091E00E94B9
:10029000C70F87E391E00C94200D0F931F9387E322
:1002A00091E00E94E80C082F80E091E00E94880F06
:1002B0009091E20094609093E20010E090E00823B7
:1002C000192300FF02C090E601C090E98BB18F7046
:1002D000982B9BB91F910F91089584B7877F84BF96
:1002E00088E10FB6F89480936000109260000FBE12
:1002F00080E090E020E80FB6F894209361008093AE
:1003000061000FBE8AB1806F8AB98BB18F708BB9D3
:1003100084B18F7184B98DB18F7C8DB985B1806EB8
:1003200085B98EB180638EB96A98729A209A289A9C
:1003300084B1866084B923982B9A8DB581608DBD78
:1003400020988CE58CBD8DB183608DB98EB18360B2
:100350008EB99AD597C0C1DF8BB18F7080618BB990
:10036000789480E091E00E94650E87E391E00E941E
:100370001B0C0E94080CF5CFDA019330B1F09430D9
:1003800028F4913041F0923079F50AC0913211F1A0
:10039000923251F524C0E7EDF0E022E130E028C0D0
:1003A000E9EEF0E029E330E023C0813049F081300C
:1003B00018F08230C9F40AC0E2E2F1E0849103C08F
:1003C000E6E2F1E08491282F30E012C0E0E4F1E0B1
:1003D0008491F9CFE2E1F1E029E030E009C0E8E9F9
:1003E000F0E02FE330E004C0E0E0F0E020E030E0B7
:1003F000ED93FC93C90108959C018EB183608EB981
:1004000080E42030380758F420FF05C08EB18C7F7F
:1004100081608EB908958EB18C7F82608EB9089507
:100420008EB19EB193609EB99EB183709C7F892BE3
:100430008EB90895F5DF87ED8EBD0DB407FEFDCFB3
:100440001EBC0DB407FEFDCF0EB407FEF9CFE8CFFA
:100450009C013695279536E0969587953A95E1F774
:100460008EBD0DB407FEFDCF822F880F880F880F39
:10047000872B8EBD0DB407FEFDCF6EBD0DB407FEFC
:10048000FDCF08958EB18C7F82608EB987ED8EBDD1
:100490000DB407FEFDCF1EBC0DB407FEFDCF0EB49C
:1004A00001FE15C0BDDF8DE38EBD0DB407FEFDCF8F
:1004B0008AE28EBD0DB407FEFDCF8FE78EBD0DB471
:1004C00007FEFDCF8AE98EBD0DB407FEFDCF8EB1CC
:1004D0008C7F81608EB987ED8EBD0DB407FEFDCF98
:1004E0001EBC0DB407FEFDCF0EB401FE15C098DF93
:1004F0008DE38EBD0DB407FEFDCF8AE28EBD0DB437
:1005000007FEFDCF8FE78EBD0DB407FEFDCF8AE954
:100510008EBD0DB407FEFDCF8EB183608EB90895F8
:100520008EB18C7F82608EB98FE98EBD0DB407FECF
:10053000FDCF1EBC0DB407FEFDCF9EB58EB183600E
:100540008EB99F3111F080E008958EB18C7F81606B
:100550008EB98FE98EBD0DB407FEFDCF1EBC0DB464
:1005600007FEFDCF9EB58EB183608EB980E09F31CE
:1005700009F481E00895AF92BF92CF92DF92EF929B
:10058000FF920F931F93DF93CF930F92CDB7DEB7F8
:100590005C017901E9E0440F551F661F771FEA955A
:1005A000D1F7DB01CA013AE0B695A79597958795F3
:1005B0003A95D1F78C012FEFC22E23E0D22EC42220
:1005C000D5221ADF82ED8EBD0DB407FEFDCFC80126
:1005D000B6013EDF1EBC0DB407FEFDCF1EBC0DB440
:1005E00007FEFDCF1EBC0DB407FEFDCF1EBC0DB433
:1005F00007FEFDCFCED3882309F0C5C094E0D69482
:10060000C7949A95E1F79C2D82EDC82EACC0DD24ED
:100610008091E80085FD0BC08091E8008E77809383
:10062000E8009983B6D39981882309F0ACC090344F
:10063000E9F40F5F1F4FC801DFDECEBC0DB407FE2B
:10064000FDCFC80160E070E003DF1EBC0DB407FE03
:10065000FDCF1EBC0DB407FEFDCF1EBC0DB407FEC2
:10066000FDCF1EBC0DB407FEFDCF90E01EBC0DB447
:1006700007FEFDCF8EB58093F1001EBC0DB407FEC2
:10068000FDCF8EB58093F1001EBC0DB407FEFDCFEB
:100690008EB58093F1001EBC0DB407FEFDCF8EB564
:1006A0008093F1001EBC0DB407FEFDCF8EB5809384
:1006B000F1001EBC0DB407FEFDCF8EB58093F10096
:1006C0001EBC0DB407FEFDCF8EB58093F1001EBC9D
:1006D0000DB407FEFDCF8EB58093F1001EBC0DB4A6
:1006E00007FEFDCF8EB58093F1001EBC0DB407FE52
:1006F000FDCF8EB58093F1001EBC0DB407FEFDCF7B
:100700008EB58093F1001EBC0DB407FEFDCF8EB5F3
:100710008093F1001EBC0DB407FEFDCF8EB5809313
:10072000F1001EBC0DB407FEFDCF8EB58093F10025
:100730001EBC0DB407FEFDCF8EB58093F1001EBC2C
:100740000DB407FEFDCF8EB58093F100F50186A9AB
:100750008823C9F49F5FD394F0E2DF1609F058CFE5
:100760000894E108F108E114F10409F050CF8091F8
:10077000E80085FD05C08091E8008E778093E80051
:100780008EB183608EB90F90CF91DF911F910F9141
:10079000FF90EF90DF90CF90BF90AF9008958F9231
:1007A0009F92AF92BF92CF92DF92EF92FF920F9300
:1007B0001F93DF93CF930F92CDB7DEB75C01790122
:1007C00009E0440F551F661F771F0A95D1F7DB011B
:1007D000CA011AE0B695A795979587951A95D1F70E
:1007E0008C01BFEFCB2EB3E0DB2EC422D52204DE7A
:1007F00083E58EBD0DB407FEFDCFC80160E070E05B
:1008000027DE18DE84E88EBD0DB407FEFDCF80E044
:1008100090E0B6011DDEBDD2882309F0EAC0A4E055
:10082000D694C794AA95E1F79C2D4701F5E0880C72
:10083000991CFA95E1F7DD24BDC0CC248091E80035
:1008400085FD0BC08091E8008B778093E800998349
:10085000A0D29981882309F0CCC0903409F039C026
:10086000E9DDDD2011F483E801C086E88EBD0DB41A
:1008700007FEFDCFC80160E070E0EADD0F5F1F4FAB
:100880008EB18370813009F4D826C801B5DD20E42B
:100890008216910478F4CEDDDD2011F483E501C0E9
:1008A00085E58EBD0DB407FEFDCFC80160E070E0A8
:1008B000CFDDC0DDDD2011F484E801C087E88EBD06
:1008C0000DB407FEFDCF80E090E060E070E0C0DD99
:1008D00090E08091F1008EBD0DB407FEFDCF8091B8
:1008E000F1008EBD0DB407FEFDCF8091F1008EBDED
:1008F0000DB407FEFDCF8091F1008EBD0DB407FE53
:10090000FDCF8091F1008EBD0DB407FEFDCF80912B
:10091000F1008EBD0DB407FEFDCF8091F1008EBDBC
:100920000DB407FEFDCF8091F1008EBD0DB407FE22
:10093000FDCF8091F1008EBD0DB407FEFDCF8091FB
:10094000F1008EBD0DB407FEFDCF8091F1008EBD8C
:100950000DB407FEFDCF8091F1008EBD0DB407FEF2
:10096000FDCF8091F1008EBD0DB407FEFDCF8091CB
:10097000F1008EBD0DB407FEFDCF8091F1008EBD5C
:100980000DB407FEFDCF8091F1008EBD0DB407FEC2
:10099000FDCFF50186A9882361F59F5FC394F0E23E
:1009A000CF1609F04BCF0894E108F10820EE3FEF95
:1009B000820E931EE114F10409F03FCF3BDDDD20F0
:1009C00011F483E801C086E88EBD0DB407FEFDCFAB
:1009D000C80160E070E03CDD2DDD8091E80085FD20
:1009E00005C08091E8008B778093E8008EB183602A
:1009F0008EB90F90CF91DF911F910F91FF90EF90E3
:100A0000DF90CF90BF90AF909F908F9008950F93FD
:100A10001F93CF93DF938C01862FF801468D558D60
:100A2000648D738DC1A1D0A14030F0E85F07F0E084
:100A30006F07F0E07F0768F080914801807F856054
:100A40008093480181E2809352011092530180E02B
:100A500021C0882321F0C8019E018DDD03C0C8019B
:100A60009E019DDE9E0140E050E089E0220F331F91
:100A7000441F551F8A95D1F7F80182899389A4896B
:100A8000B589821B930BA40BB50B828B938BA48B24
:100A9000B58B81E0DF91CF911F910F910895CF9297
:100AA000DF92EF92FF920F931F93DF93CF93CDB717
:100AB000DEB728970FB6F894DEBF0FBECDBF7C011E
:100AC000FC01818D8D3109F4A6C08E3178F483301C
:100AD00009F452C0843020F4882309F4D9C0DEC060
:100AE0008231B9F08A3109F0D9C0B8C0883209F42E
:100AF000AFC0893238F48E3109F4CAC0853209F0AA
:100B0000CDC05DC08A3209F4A0C08F3209F0C6C0E2
:100B1000BFC0F701058D148D828D90E083709070B9
:100B2000892B09F07CC0838D882309F078C0680187
:100B30000532110518F094E2C92ED12C88E591E018
:100B4000B60140E050E062D4C8018C199D0960E014
:100B500070E0ADD48091E8008E778093E800960134
:100B600040E050E0F70182899389A489B589821B0E
:100B7000930BA40BB50B87C0F701158D012F133113
:100B800008F002E186E491E0602F70E040E050E080
:100B90003DD4812F90E0801B910960E070E087D404
:100BA0008091E8008E778093E800F701828993892D
:100BB000A489B589801B9109A109B10964C08FEF8F
:100BC0009FE7A0E0B0E089839A83AB83BC8380E099
:100BD00092E0A0E0B0E08D839E83AF83B887CE0122
:100BE000019664E070E040E050E0BFD3CE0105968E
:100BF00064E070E040E050E0B8D38091E8008E7788
:100C00008093E800F70182899389A489B5890897C0
:100C1000A109B10938C0F701828D82FD08C0809119
:100C20004801807F85608093480184E23EC078DC83
:100C3000882371F580914801807F8460809348010A
:100C4000109252011092530133C0C70160E002C0FC
:100C5000C70161E0DCDE882359F12CC01092F1005D
:100C60001092F1001092F1001092F1008091E800D2
:100C70008E778093E800F70182899389A489B589EA
:100C80000497A109B109828B938BA48BB58B12C0F9
:100C9000F701128A138A148A158A0CC080914801C0
:100CA000807F85608093480180E280935201CACFA3
:100CB00080E00AC080914801807F809348011092B3
:100CC00052011092530181E028960FB6F894DEBFCE
:100CD0000FBECDBFCF91DF911F910F91FF90EF908D
:100CE000DF90CF900895382F282F2CC02093E90053
:100CF000231721F4762F942F50E006C07091EC005A
:100D00009091ED005091F00091FF1BC08091EB009D
:100D10008E7F8093EB008091ED008D7F8093ED00BE
:100D20008091EB0081608093EB007093EC009093D6
:100D3000ED005093F0008091EE0087FD02C080E04E
:100D400008952F5F273090F23093E90081E00895F5
:100D50008091890188239CF404C0809188018823B4
:100D6000B9F08091E80082FFF8CF8091E8008B779E
:100D70008093E800089580918801882349F080914C
:100D8000E80080FFF8CF8091E8008E778093E8003C
:100D900008954091E4005091E50024E68091EC0034
:100DA00080FF24C08091E80080FD1EC080918801F2
:100DB000882311F482E00895853011F483E00895CA
:100DC0008091EB0085FF02C081E008958091E400EE
:100DD0009091E5008417950709F3222311F484E02C
:100DE00008952150AC01DACF80E008958091E800A9
:100DF00082FFDCCFF9CFEF92FF920F931F934DD07C
:100E000054D008ED10E0F80180818F7780838081D5
:100E10008068808380818F7D8083E7EDF0E0808132
:100E20008068808319BC109288011092840110920E
:100E300086011092850180EEE82EF12CF701808169
:100E40008B7F8083F80180818160808380E060E017
:100E500042E049DFE1EEF0E080818E7F8083E2EEC8
:100E6000F0E0808181608083808188608083F701E9
:100E700080818E7F8083F8018081806180831F91D3
:100E80000F91FF90EF900895E7EDF0E08081816091
:100E9000808381E080938701AECFE8EDF0E0808130
:100EA0008C7F80831092E20008951092DA001092F5
:100EB000E10008951F920F920FB60F920BB60F929A
:100EC00011241F932F933F934F935F936F937F93BF
:100ED0008F939F93AF93BF93EF93FF93E9EEF0E06F
:100EE00010811F701082E0EFF0E08081877F8083A7
:100EF00078941FD3A9EEB0E01C92E0EFF0E080817F
:100F0000886080831C93FF91EF91BF91AF919F9177
:100F10008F917F916F915F914F913F912F911F9191
:100F20000F900BBE0F900FBE0F901F9018951F9241
:100F30000F920FB60F920BB60F9211242F933F937F
:100F40004F935F936F937F938F939F93AF93BF93D1
:100F5000EF93FF938091E10082FF0AC08091E2004D
:100F600082FF06C08091E1008B7F8093E10036D93B
:100F70008091DA0080FF1DC08091D80080FF19C0E9
:100F80008091DA008E7F8093DA008091D90080FF13
:100F90000CC08CE089BD8EE089BD09B400FEFDCF98
:100FA00081E08093880110D904C019BC1092880197
:100FB00010D98091E10080FF18C08091E20080FF8D
:100FC00014C08091E2008E7F8093E2008091E20065
:100FD00080618093E2008091D80080628093D80085
:100FE00019BC85E08093880112D48091E10084FFD0
:100FF0002DC08091E20084FF29C08CE089BD8EE085
:1010000089BD09B400FEFDCF8091D8008F7D80930B
:10101000D8008091E1008F7E8093E1008091E20012
:101020008F7E8093E2008091E20081608093E200F5
:1010300080918401882331F48091E30087FD02C010
:1010400081E001C084E080938801E1D38091E100D8
:1010500083FF27C08091E20083FF23C08091E100DD
:10106000877F8093E10082E0809388011092840161
:101070008091E1008E7F8093E1008091E2008E7F7D
:101080008093E2008091E20080618093E20080E042
:1010900060E042E028DE8091F00088608093F000FC
:1010A000B6D3FF91EF91BF91AF919F918F917F91B7
:1010B0006F915F914F913F912F910F900BBE0F90C9
:1010C0000FBE0F901F9018959C0140918F01509179
:1010D00090014617570718F4F90190E03DC06115DB
:1010E000710511F0AB01F8CF8091E8008E77809305
:1010F000E80040E050E0F0CF809188018823F1F1D2
:101100008530F1F18091E80083FF02C081E008950D
:101110008091E80082FD2CC08091E80080FF1CC017
:101120002091F2003091F30007C081918093F1008B
:10113000415050402F5F3F4F4115510519F0283065
:10114000310598F390E02830310509F491E0809161
:10115000E8008E778093E8004115510569F69923E0
:1011600059F606C080918801882341F0853041F00E
:101170008091E80082FFF6CF80E0089582E0089534
:1011800083E008959C016115710529F48091E800C0
:101190008B778093E800F90122C080918801882331
:1011A00071F1853071F18091E80083FF02C081E028
:1011B00008958091E80082FFF0CF06C08091F10091
:1011C00081936150704031F08091F2009091F30072
:1011D000892BA1F78091E8008B778093E800611557
:1011E0007105D9F606C080918801882341F08530C9
:1011F00041F08091E80080FFF6CF80E0089582E022
:10120000089583E008959C0140918F0150919001D1
:101210004617570718F4F90190E040C061157105B1
:1012200011F0AB01F8CF8091E8008E778093E80051
:1012300040E050E0F0CF80918801882309F440C05D
:10124000853009F43FC08091E80083FF02C081E04F
:1012500008958091E80082FD2DC08091E80080FF14
:101260001DC02091F2003091F30008C0849180935A
:10127000F1003196415050402F5F3F4F41155105CD
:1012800019F02830310590F390E02830310509F449
:1012900091E08091E8008E778093E8004115510538
:1012A00051F6992341F606C080918801882341F0C8
:1012B000853041F08091E80082FFF6CF80E008950C
:1012C00082E0089583E00895BF92CF92DF92EF927B
:1012D000FF920F931F93CF93DF93182F092F7B015A
:1012E0006A0157DDB82E8823A9F5812F902F9C0124
:1012F000E901C114D10439F0F60180819181E81A25
:10130000F90AC80FD91F00E010E021C08091E80061
:1013100085FD15C08091E8008B778093E800C114AB
:10132000D10449F0F60180819181800F911F918352
:10133000808385E010C02DDD882349F00CC08091AA
:10134000F10089930894E108F1080F5F1F4FE11441
:10135000F104E1F68B2DDF91CF911F910F91FF905A
:10136000EF90DF90CF90BF900895BF92CF92DF9221
:10137000EF92FF920F931F93CF93DF938C01EB01BA
:101380006A0107DDB82E8823B1F521970C0F1D1FC8
:101390002196C114D10439F0F60180819181C81BD6
:1013A000D90B081B190BEE24FF2423C08091E80001
:1013B00085FD15C08091E8008E778093E800C11408
:1013C000D10449F0F601808191818E0D9F1D91839A
:1013D000808385E011C0DDDC882359F00DC0F80161
:1013E00080818093F1000150104021970894E11C06
:1013F000F11C2097D9F68B2DDF91CF911F910F9182
:10140000FF90EF90DF90CF90BF900895BF92CF9262
:10141000DF92EF92FF920F931F93CF93DF93182FDA
:10142000092F7B016A01B5DCB82E8823A9F5812F2D
:10143000902F9C01E901C114D10439F0F60180819B
:101440009181E81AF90AC80FD91F00E010E021C005
:101450008091E80085FD15C08091E8008E7780932B
:10146000E800C114D10449F0F60180819181800F18
:10147000911F9183808385E010C08BDC882349F025
:101480000CC089918093F1000894E108F1080F5F86
:101490001F4FE114F104E1F68B2DDF91CF911F91E5
:1014A0000F91FF90EF90DF90CF90BF900895DF9263
:1014B000EF92FF920F931F93CF93DF93EC018B0179
:1014C00068DCD82E882361F50115110529F0F80193
:1014D00080819181C81BD90BEE24FF241FC080910D
:1014E000E80085FD15C08091E8008E778093E800C4
:1014F0000115110549F0F801808191818E0D9F1D24
:101500009183808385E00DC044DC882339F009C0D5
:101510001092F10021970894E11CF11C2097F9F634
:101520008D2DDF91CF911F910F91FF90EF90DF9064
:1015300008950F931F93DF93CF93CDB7DEB7AC978A
:101540000FB6F894DEBF0FBECDBFE9E8F1E08091A1
:10155000F100819321E0E139F207C9F70E944501CA
:101560008091E80083FF3AC18091890130918A011E
:10157000353009F487C0363040F43130C9F13130AC
:1015800070F0333009F02AC133C0383009F4F7C0A5
:10159000393009F406C1363009F020C197C08038CF
:1015A00021F0823809F01AC108C09091850180911C
:1015B0008601882399F0926011C080918D018F700F
:1015C0008093E9008091EB0090E025E09695879567
:1015D0002A95E1F7982F91701092E9008091E80028
:1015E000877F8093E8009093F1001092F100D2C0C1
:1015F000882319F0823009F0F1C090E08F7190706B
:10160000009721F0029709F0E9C00CC080918B018E
:10161000813009F0E3C010928601333069F5809380
:1016200086012AC080918B01882331F520918D019C
:101630002F7009F4D3C02093E9008091EB0080FF64
:101640001BC0333021F48091EB00806213C0809185
:10165000EB0080618093EB0081E090E002C0880F96
:10166000991F2A95E2F78093EA001092EA00809190
:10167000EB0088608093EB001092E9008091E80015
:10168000877F8BC0882309F0A9C010918B011F7739
:101690000FB7F8948091E800877F8093E80058DBCB
:1016A0008091E80080FFFCCF8091E3008078812B5F
:1016B0008093E30080688093E300112311F482E0BB
:1016C00001C083E0809388010FBF88C080588230BA
:1016D00008F084C080918B0190918C0123E08C3DB7
:1016E000920709F033C083E08C838AE28B837FB753
:1016F000F894DE0115966EE040E050E011E2E62F2E
:10170000F0E010935700849140FF03C082958F70E2
:101710006F5F8F70282F30E08A3018F0C901C796AC
:1017200002C0C901C0968D939D934F5F5F4F4431B6
:10173000510529F77FBF8091E800877F8093E800FB
:10174000CE0103966AE270E0BFDC13C060918D01A8
:10175000AE014F5F5F4F0E94BC01BC01009709F4CE
:101760003DC08091E800877F8093E80089819A815D
:101770004ADD8091E8008B778093E8002FC08038A5
:1017800069F58091E800877F8093E800809184016B
:101790008093F1008091E8008E778093E800D8DA9A
:1017A0001DC08823D9F490918B019230B8F48091B8
:1017B000E800877F8093E80090938401C9DA8091E4
:1017C0008401882331F48091E30087FD02C081E029
:1017D00001C084E0809388010E944D018091E8005F
:1017E00083FF0AC08091EB0080628093EB008091C0
:1017F000E800877F8093E800AC960FB6F894DEBFD0
:101800000FBECDBFCF91DF911F910F910895089525
:101810001F9380918801882361F01091E900109254
:10182000E9008091E80083FF01C083DE1F70109300
:10183000E9001F9108954F925F926F927F928F926D
:101840009F92AF92BF92CF92DF92EF92FF920F934F
:101850001F93DF93CF9300D00F92CDB7DEB77C01FB
:101860006DB67EB680918801843009F098C02091D1
:10187000E4003091E500F701818592858217930796
:1018800009F48DC081818093E9008091E80085FF93
:1018900086C05DB64EB6478150E08DB79EB7841BBB
:1018A000950B0FB6F8949EBF0FBE8DBF0DB71EB738
:1018B0000F5F1F4F19821B821A82C02E912EC80102
:1018C00060E070E050E0B8D3C701BE016F5F7F4FAA
:1018D00040E098018E010E5F1F4F0E94FA00882E93
:1018E000F70183859485892B19F4AA24BB240BC0A6
:1018F00020E0F70185859685892B09F021E081E0BC
:101900002827A22EBB24F701058116810115110598
:1019100011F4DD2412C04A815B818C2D992DB80110
:1019200075D3DD24009711F0DD24D394F7014781AE
:10193000C8016C2D792D50E076D38A819B81892B4B
:10194000F9F0882021F4DD2011F4AB28C9F0F7016B
:10195000838594859687858781818093E900898135
:10196000882311F08093F1006A817B818C2D992D61
:1019700040E050E04BDD8091E8008E778093E800F6
:101980008091E4009091E500F70192878187252DF1
:10199000342DC9010FB6F8949EBF0FBE8DBF0FB690
:1019A000F8947EBE0FBE6DBE0F900F900F90CF913A
:1019B000DF911F910F91FF90EF90DF90CF90BF903C
:1019C000AF909F908F907F906F905F904F90089511
:1019D000CF93DF93DC010896FC0187E0EF011992B9
:1019E0008A95E9F781E018968C93189784EF91E037
:1019F0001C969C938E931B9711963C91119712966F
:101A00006D917C91139714968C91882311F440E08A
:101A100001C044E020E088E090E003C02F5F880F21
:101A2000991F86179707D0F342602295207F422B9B
:101A3000832F61EC58D9811181E0DF91CF91089516
:101A40006F927F928F929F92AF92BF92CF92DF92CE
:101A5000EF92FF920F931F93DF93CF9300D00F92DB
:101A6000CDB7DEB76C016DB67EB68091E80083FF1E
:101A700015C1F601808190E020918D0130918E0199
:101A80002817390709F00AC180918A01833009F4C7
:101A9000ADC0843030F4813071F0823009F0FEC086
:101AA000E1C08A3009F4C6C08B3009F4B0C0893077
:101AB00009F0F4C057C080918901813A09F0EEC065
:101AC0009DB68EB61B821A8280918B0110918C017B
:101AD0008983F601478150E08DB79EB7841B950B33
:101AE0000FB6F8949EBF0FBE8DBFEDB6FEB608943C
:101AF000E11CF11CBE2CAF2CC70160E070E050E08F
:101B00009BD21150C601BE016F5F7F4F412F9701DD
:101B10008E010E5F1F4F0E94FA00F601258136816B
:101B20002115310529F04781C901B70150E07BD269
:101B30001092E9008091E800877F8093E8006A8135
:101B40007B818B2D9A2DC0DA8091E8008B77809372
:101B5000E800292D382DC9010FB6F8949EBF0FBE9D
:101B60008DBF9CC080918901813209F097C09DB6DC
:101B70008EB600918F0110919001A0908B01B090D2
:101B80008C018DB79EB7801B910B0FB6F8949EBF4A
:101B90000FBE8DBFEDB6FEB60894E11CF11C80911E
:101BA000E800877F8093E800C701B801EBDA8091F5
:101BB000E8008E778093E80080E090E0AA2011F0A2
:101BC00081E090E0BA94E80EF91E081B190BC601DB
:101BD0006A2D4B2D97010E942D01892D982D9C0176
:101BE0000FB6F8943EBF0FBE2DBF58C0809189013B
:101BF000813A09F053C08091E800877F8093E80024
:101C00008091E80080FFFCCFF60180853FC0809185
:101C10008901813209F042C08091E800877F80937A
:101C2000E80096D890E080918B01811191E0F60157
:101C3000908734C080918901813281F58091E800DC
:101C4000877F8093E80084D880918B0190918C01EC
:101C5000807076E0969587957A95E1F7F6019487FE
:101C600083871CC080918901813AC1F48091E8008A
:101C7000877F8093E8008091E80080FFFCCFF60129
:101C80008385948596958795969587958093F100A1
:101C90008091E8008E778093E8005AD80FB6F894C8
:101CA0007EBE0FBE6DBE0F900F900F90CF91DF9153
:101CB0001F910F91FF90EF90DF90CF90BF90AF906A
:101CC0009F908F907F906F900895CF92DF92EF92C8
:101CD000FF920F931F93DF93CF9300D0CDB7DEB762
:101CE0008C0180918801843009F007C1F801958149
:101CF0009093E9008091E80085FFC9C09093E900C6
:101D00001A8219822AE0E22EF12CE00EF11E6E01F9
:101D10000894C11CD11C05C0F80186A9882309F0CC
:101D2000B6C0C7016FE070E0A601CEDA8530A1F33E
:101D3000F80182859385A485B58585559345A24490
:101D4000B34481F4F80197898185981758F48689FE
:101D500090E08F719070892B29F4808D882311F089
:101D6000813178F08091EB0080628093EB00F80184
:101D700081818093E9008091EB0080628093EB0089
:101D800086C01A82198299E1E92EF12CE00EF11E2B
:101D90006E010894C11CD11C05C0F80186A98823D6
:101DA00009F075C0F801608DC70170E0A6018CDAFA
:101DB000853099F38091E8008B778093E800F801F3
:101DC000868987FF03C081818093E900C8010E9452
:101DD0003B0191E09827F80195AB25E533E542E416
:101DE00053E521A732A743A754A726853785408905
:101DF000518925A736A747A750AB22893389448943
:101E0000558921AB32AB43AB54AB882351F4211538
:101E100031054105510529F08091EB0080628093E6
:101E2000EB00F80185818093E90004C0F80186A9E0
:101E3000882369F58091EB0085FDF8CFF801818159
:101E40008093E90004C0F80186A9882301F58091F8
:101E5000EB0085FDF8CF1A82198289E2E82EF12C79
:101E6000E00EF11E6E010894C11CD11C04C0F801E3
:101E700086A9882361F4C7016DE070E0A601C6DA87
:101E80008530A9F38091E8008E778093E800F8010F
:101E900086A9882391F1458121E030E0C901042E13
:101EA00002C0880F991F0A94E2F78093EA0010920B
:101EB000EA009181092E02C0220F331F0A94E2F733
:101EC0002093EA001092EA004093E9008091EB0031
:101ED00080618093EB008091EB0088608093EB0041
:101EE0009093E9008091EB0080618093EB008091FA
:101EF000EB0088608093EB0016AA0F900F90CF91B3
:101F0000DF911F910F91FF90EF90DF90CF90089598
:101F10001F93CF93DF93EC010A96FC018DE2DF0162
:101F20001D928A95E9F711E08981181729F46A81D1
:101F30007B818C8130E807C08D81181701F56E8197
:101F40007F81888530E0882311F440E001C044E0BF
:101F500020E088E090E003C02F5F880F991F86176C
:101F60009707D0F360E0311161E06068426022952C
:101F7000207F422B812F0E947306882321F01F5F50
:101F8000173091F681E0DF91CF911F910895CF93A3
:101F9000DF93EC018091E80083FF35C0888190E0F9
:101FA00020918D0130918E012817390761F58091BC
:101FB0008A018E3F81F08F3F31F580918901813216
:101FC00011F58091E800877F8093E8000E94A806C1
:101FD00081E08EAB18C080918901813AA1F4809193
:101FE000E800877F8093E8008091E80080FFFCCFC5
:101FF000898581508093F1008091E8008E778093ED
:10200000E8000E94A806DF91CF910895FB01DC0152
:1020100004C08D910190801921F441505040C8F7BF
:10202000881B990B0895FB01DC0102C001900D9201
:1020300041505040D8F70895DC0101C06D934150E4
:0A2040005040E0F70895F894FFCF38
:10204A0000034000000440000001000000000000FE
:10205A000000000000000000000000000000000076
:10206A000000000000000000000000000000000066
:10207A000000000000000001010800007C010800C7
:10208A00000000000000700000000000000A0000CC
:10209A000000000000000000008000021F00000095
:1020AA004C5546410000000044617461666C6173DE
:0C20BA0068204469736B0000302E303049
:00000001FF
