:100000009BC00000B6C00000B4C00000B2C0000039
:10001000B0C00000AEC00000ACC00000AAC000002C
:10002000A8C00000A6C0000060C20000A2C000007E
:10003000A0C000009EC000009CC000009AC000004C
:1000400098C0000096C0000094C0000092C000005C
:1000500090C000008EC000008CC000008AC000006C
:1000600088C0000086C0000084C0000082C000007C
:1000700080C000007EC000007CC000007AC000008C
:1000800078C0000076C0000074C0000072C000009C
:1000900070C000006EC000000600FF0901A1010948
:1000A00002150025FF750895088102090315002532
:1000B000FF750895089102C01201100100000008A8
:1000C000EB034F200100010200010902220001019F
:1000D00000C03209040000010300000009211101E1
:1000E0000001222000070581030800010403090420
:1000F00018034400650061006E00200043006100A9
:100100006D0065007200610000002C034C0055007A
:10011000460041002000470065006E006500720047
:1001200069006300200048004900440020004400AA
:1001300065006D006F00000011241FBECFEFD0E2FC
:10014000DEBFCDBF11E0A0E0B1E0E8EEF0E100E0FD
:100150000BBF02C007900D92A031B107D9F711E093
:10016000A0E1B1E001C01D92A532B107E1F78BD04B
:10017000B9C746CF8BB18F70806A8BB908958BB1A8
:100180008F7080618BB9089580910D0190910E015F
:10019000009729F0019790930E0180930D01089527
:1001A0000F931F93D801F9012BB1207F422F50E00C
:1001B000CA0164E0969587956A95E1F7817080831E
:1001C000CA0135E0969587953A95E1F7817081836C
:1001D000128227FF02C081E0828386E05695479510
:1001E0008A95E1F7842F8170838388E090E08D9376
:1001F0009C9380E01F910F910895F90180818823DD
:1002000011F090E101C090E08181811190618281C3
:10021000811190618381811190618BB18F70982BD6
:100220009BB9089580E091E0FDC580E091E0C2D5E2
:100230009091E20094609093E20080FD02C090E90A
:1002400001C090E68BB18F70982B9BB9089584B74D
:10025000877F84BF88E10FB6F89480936000109286
:1002600060000FBE80E090E020E80FB6F894209385
:100270006100809361000FBE8AB1806F8AB98BB133
:100280008F708BB91CC1E3DF8BB18F7080618BB92C
:10029000789480E091E0C2D4AED4FBCFDA01933001
:1002A000B1F0943028F4913041F0923079F50AC0E1
:1002B000913211F1923251F524C0E8EBF0E022E1E5
:1002C00030E028C0EAECF0E022E230E023C08130E8
:1002D00049F0813018F08230C9F40AC0ECEEF0E049
:1002E000849103C0E0EFF0E08491282F30E012C049
:1002F000EAE0F1E08491F9CFECEDF0E029E030E0C4
:1003000009C0E8E9F0E020E230E004C0E0E0F0E01D
:1003100020E030E0ED93FC93C9010895382F282F99
:100320002CC02093E900231721F4762F942F50E05E
:1003300006C07091EC009091ED005091F00091FF9B
:100340001BC08091EB008E7F8093EB008091ED00CD
:100350008D7F8093ED008091EB0081608093EB00B6
:100360007093EC009093ED005093F0008091EE00BC
:1003700087FD02C080E008952F5F273090F2309310
:10038000E90081E0089580911D0188239CF404C058
:1003900080911C018823B9F08091E80082FFF8CF9A
:1003A0008091E8008B778093E800089580911C018C
:1003B000882349F08091E80080FFF8CF8091E80021
:1003C0008E778093E80008954091E4005091E50015
:1003D00024E68091EC0080FF24C08091E80080FD3D
:1003E0001EC080911C01882311F482E0089585309D
:1003F00011F483E008958091EB0085FF02C081E055
:1004000008958091E4009091E5008417950709F321
:10041000222311F484E008952150AC01DACF80E06A
:1004200008958091E80082FFDCCFF9CFEF92FF9230
:100430000F931F934DD054D008ED10E0F801808148
:100440008F77808380818068808380818F7D8083A7
:10045000E7EDF0E080818068808319BC10921C0178
:100460001092180110921A011092190180EEE82ED4
:10047000F12CF70180818B7F8083F801808181607E
:10048000808380E060E042E049DFE1EEF0E08081DF
:100490008E7F8083E2EEF0E08081816080838081C6
:1004A00088608083F70180818E7F8083F80180815E
:1004B000806180831F910F91FF90EF900895E7ED89
:1004C000F0E080818160808381E080931B01AECF6A
:1004D000E8EDF0E080818C7F80831092E200089547
:1004E0001092DA001092E10008951F920F920FB659
:1004F0000F920BB60F9211242F933F934F935F935C
:100500006F937F938F939F93AF93BF93EF93FF93DB
:100510008091E10082FF0AC08091E20082FF06C064
:100520008091E1008B7F8093E1002EDE8091DA00E4
:1005300080FF1DC08091D80080FF19C08091DA0033
:100540008E7F8093DA008091D90080FF0CC08CE010
:1005500089BD8EE089BD09B400FEFDCF81E08093A6
:100560001C0108DE04C019BC10921C0108DE809139
:10057000E10080FF18C08091E20080FF14C08091EC
:10058000E2008E7F8093E2008091E20080618093A0
:10059000E2008091D80080628093D80019BC85E089
:1005A00080931C0127D38091E10084FF2DC08091AE
:1005B000E20084FF29C08CE089BD8EE089BD09B4CA
:1005C00000FEFDCF8091D8008F7D8093D800809170
:1005D000E1008F7E8093E1008091E2008F7E809326
:1005E000E2008091E20081608093E2008091180136
:1005F000882331F48091E30087FD02C081E001C0CF
:1006000084E080931C01F6D28091E10083FF22C038
:100610008091E20083FF1EC08091E100877F80937C
:10062000E10082E080931C01109218018091E100AA
:100630008E7F8093E1008091E2008E7F8093E200C4
:100640008091E20080618093E20080E060E042E01F
:1006500065DED0D2FF91EF91BF91AF919F918F91C5
:100660007F916F915F914F913F912F910F900BBEB2
:100670000F900FBE0F901F9018959C014091230181
:10068000509124014617570718F4F90190E03DC036
:100690006115710511F0AB01F8CF8091E8008E77FC
:1006A0008093E80040E050E0F0CF80911C01882367
:1006B000F1F18530F1F18091E80083FF02C081E023
:1006C00008958091E80082FD2CC08091E80080FFB1
:1006D0001CC02091F2003091F30007C081918093FB
:1006E000F100415050402F5F3F4F4115510519F027
:1006F0002830310598F390E02830310509F491E075
:100700008091E8008E778093E8004115510569F6E5
:10071000992359F606C080911C01882341F0853049
:1007200041F08091E80082FFF6CF80E0089582E0FA
:10073000089583E008959C016115710529F4809165
:10074000E8008B778093E800F90122C080911C01BA
:10075000882371F1853071F18091E80083FF02C038
:1007600081E008958091E80082FFF0CF06C080917B
:10077000F10081936150704031F08091F2009091CE
:10078000F300892BA1F78091E8008B778093E80034
:1007900061157105D9F606C080911C01882341F0CE
:1007A000853041F08091E80080FFF6CF80E0089529
:1007B00082E0089583E008959C01409123015091C7
:1007C00024014617570718F4F90190E040C061155D
:1007D000710511F0AB01F8CF8091E8008E7780931E
:1007E000E80040E050E0F0CF80911C01882309F43C
:1007F00040C0853009F43FC08091E80083FF02C00B
:1008000081E008958091E80082FD2DC08091E8008C
:1008100080FF1DC02091F2003091F30008C0849148
:100820008093F1003196415050402F5F3F4F41156A
:10083000510519F02830310590F390E0283031054A
:1008400009F491E08091E8008E778093E8004115EB
:10085000510551F6992341F606C080911C01882369
:1008600041F0853041F08091E80082FFF6CF80E0D2
:10087000089582E0089583E00895BF92CF92DF92B9
:10088000EF92FF920F931F93CF93DF93182F092FAF
:100890007B016A0199DDB82E8823B1F5812F902F55
:1008A0009C01E901C114D10439F0F60180819181E4
:1008B000E81AF90AC80FD91F00E010E022C08091A1
:1008C000E80085FD16C08091E8008E778093E800EF
:1008D00092D1C114D10449F0F60180819181800F39
:1008E000911F9183808385E010C06EDD882349F0DD
:1008F0000CC089918093F1000894E108F1080F5F22
:100900001F4FE114F104D9F68B2DDF91CF911F9188
:100910000F91FF90EF90DF90CF90BF9008950F93CD
:100920001F93DF93CF93CDB7DEB7AC970FB6F89494
:10093000DEBF0FBECDBFEDE1F1E08091F10081930C
:1009400021E0E532F207C9F76DDC8091E80083FF12
:1009500038C180911D0130911E01353009F487C0E6
:10096000363040F43130C9F1313070F0333009F0B5
:1009700028C133C0383009F4F6C0393009F405C154
:10098000363009F01EC197C0803821F0823809F056
:1009900018C108C09091190180911A01882399F01B
:1009A000926011C0809121018F708093E900809145
:1009B000EB0090E025E0969587952A95E1F7982F32
:1009C00091701092E9008091E800877F8093E800A1
:1009D0009093F1001092F100D1C0882319F0823079
:1009E00009F0EFC090E08F719070009721F00297AE
:1009F00009F0E7C00CC080911F01813009F0E1C00F
:100A000010921A01333069F580931A012AC080913F
:100A10001F01882331F5209121012F7009F4D1C0E5
:100A20002093E9008091EB0080FF1BC0333021F45C
:100A30008091EB00806213C08091EB008061809315
:100A4000EB0081E090E002C0880F991F2A95E2F741
:100A50008093EA001092EA008091EB008860809316
:100A6000EB001092E9008091E800877F8AC088231C
:100A700009F0A7C010911F011F770FB7F89480915C
:100A8000E800877F8093E8007EDC8091E80080FFAB
:100A9000FCCF8091E3008078812B8093E300806815
:100AA0008093E300112311F482E001C083E080937E
:100AB0001C010FBF86C08058823008F082C0809130
:100AC0001F019091200123E08C3D920709F033C073
:100AD00083E08C838AE28B837FB7F894DE011596DE
:100AE0006EE040E050E011E2E62FF0E01093570096
:100AF000849140FF03C082958F706F5F8F70282FA5
:100B000030E08A3018F0C901C79602C0C901C0960A
:100B10008D939D934F5F5F4F4431510529F77FBF00
:100B20008091E800877F8093E800CE0103966AE217
:100B300070E0A3DD12C060912101AE014F5F5F4FF5
:100B4000ADDBBC01009709F43CC08091E800877FD1
:100B50008093E80089819A812FDE8091E8008B776D
:100B60008093E8002EC0803861F58091E800877F8F
:100B70008093E800809118018093F1008091E80053
:100B80008E778093E800FFDB1CC08823D1F490911E
:100B90001F019230B0F48091E800877F8093E800D5
:100BA00090931801F0DB80911801882331F4809133
:100BB000E30087FD02C081E001C084E080931C0156
:100BC00034DB8091E80083FF0AC08091EB008062F3
:100BD0008093EB008091E800877F8093E800AC96DB
:100BE0000FB6F894DEBF0FBECDBFCF91DF911F913E
:100BF0000F91089508951F9380911C01882361F03F
:100C00001091E9001092E9008091E80083FF01C093
:100C100086DE1F701093E9001F9108954F925F9236
:100C20006F927F928F929F92AF92BF92CF92DF92FC
:100C3000EF92FF920F931F93DF93CF9300D00F9209
:100C4000CDB7DEB77C016DB67EB680911C018430D5
:100C500009F097C02091E4003091E500F70181850B
:100C600092858217930709F48CC081818093E900F3
:100C70008091E80085FF85C05DB64EB6478150E0A3
:100C80008DB79EB7841B950B0FB6F8949EBF0FBE11
:100C90008DBF0DB71EB70F5F1F4F19821B821A82BF
:100CA000C02E912EC80160E070E050E014D2C70160
:100CB000BE016F5F7F4F40E098018E010E5F1F4FB6
:100CC0006FDA882EF70183859485892B19F4AA247D
:100CD000BB240BC020E0F70185859685892B09F0A0
:100CE00021E081E02827A22EBB24F701058116818F
:100CF0000115110511F4DD2412C04A815B818C2D90
:100D0000992DB801D2D1DD24009711F0DD24D394C0
:100D1000F7014781C8016C2D792D50E0D3D18A812C
:100D20009B81892BF9F0882021F4DD2011F4AB2878
:100D3000C9F0F701838594859687858781818093A3
:100D4000E9008981882311F08093F1006A817B8119
:100D50008C2D992D40E050E090DD8091E8008E7759
:100D60008093E8008091E4009091E500F70192877C
:100D70008187252D342DC9010FB6F8949EBF0FBE73
:100D80008DBF0FB6F8947EBE0FBE6DBE0F900F9054
:100D90000F90CF91DF911F910F91FF90EF90DF9017
:100DA000CF90BF90AF909F908F907F906F905F900B
:100DB0004F900895CF93DF93DC010896FC0187E004
:100DC000EF0119928A95E9F781E018968C931897AC
:100DD00084EF91E01C969C938E931B9711963C9107
:100DE000119712966D917C91139714968C9188238C
:100DF00011F440E001C044E020E088E090E003C04E
:100E00002F5F880F991F86179707D0F342602295AE
:100E1000207F422B832F61EC81DA811181E0DF9109
:100E2000CF9108956F927F928F929F92AF92BF92CF
:100E3000CF92DF92EF92FF920F931F93DF93CF93A6
:100E400000D00F92CDB7DEB76C016DB67EB6809143
:100E5000E80083FF13C1F601808190E02091210119
:100E6000309122012817390709F008C180911E012D
:100E7000833009F4ABC0843030F4813071F08230BB
:100E800009F0FCC0DFC08A3009F4C4C08B3009F41B
:100E9000AEC0893009F0F2C056C080911D01813A80
:100EA00009F0ECC09DB68EB61B821A8280911F019C
:100EB000109120018983F601478150E08DB79EB7DC
:100EC000841B950B0FB6F8949EBF0FBE8DBFEDB679
:100ED000FEB60894E11CF11CBE2CAF2CC70160E0EB
:100EE00070E050E0F8D01150C601BE016F5F7F4F37
:100EF000412F97018E010E5F1F4F52D9F6012581B8
:100F000036812115310529F04781C901B70150E02B
:100F1000D9D01092E9008091E800877F8093E800A3
:100F20006A817B818B2D9A2DA8DB8091E8008B77DD
:100F30008093E800292D382DC9010FB6F8949EBF83
:100F40000FBE8DBF9BC080911D01813209F096C0FC
:100F50009DB68EB60091230110912401A0901F012F
:100F6000B09020018DB79EB7801B910B0FB6F894FF
:100F70009EBF0FBE8DBFEDB6FEB60894E11CF11CFE
:100F80008091E800877F8093E800C701B801D3DB38
:100F90008091E8008E778093E80080E090E0AA20BE
:100FA00011F081E090E0BA94E80EF91E081B190BCD
:100FB000C6016A2D4B2D970120D9892D982D9C01B2
:100FC0000FB6F8943EBF0FBE2DBF58C080911D01D3
:100FD000813A09F053C08091E800877F8093E80050
:100FE0008091E80080FFFCCFF60180853FC08091B2
:100FF0001D01813209F042C08091E800877F809313
:10100000E800C1D990E080911F01811191E0F601C3
:10101000908734C080911D01813281F58091E80074
:10102000877F8093E800AFD980911F0190912001C4
:10103000807076E0969587957A95E1F7F60194872A
:1010400083871CC080911D01813AC1F48091E80022
:10105000877F8093E8008091E80080FFFCCFF60155
:101060008385948596958795969587958093F100CD
:101070008091E8008E778093E80085D90FB6F894C8
:101080007EBE0FBE6DBE0F900F900F90CF91DF917F
:101090001F910F91FF90EF90DF90CF90BF90AF9096
:1010A0009F908F907F906F900895FB01DC0104C0AA
:1010B0008D910190801921F441505040C8F7881B50
:1010C000990B0895FB01DC0102C001900D92415083
:1010D0005040D8F70895DC0101C06D934150504055
:0810E000E0F70895F894FFCF3A
:1010E80000010800001001080000000000000000D6
:00000001FF
