:1000000010C200002CC200002AC2000028C200005A
:1000100026C2000024C2000022C2000020C200004C
:100020001EC200001CC200000C94570E18C2000033
:1000300016C2000014C2000012C2000010C200006C
:100040000EC200000CC200000AC2000008C200007C
:1000500006C2000004C2000002C2000000C200008C
:10006000FEC10000FCC10000FAC10000F8C10000A0
:10007000F6C10000F4C10000F2C10000F0C10000B0
:10008000EEC10000ECC10000EAC10000E8C10000C0
:10009000E6C10000E4C100001201100102000008E6
:1000A000EB034C2001000102000109023E000201A5
:1000B00000C03209040000010202FF000524001004
:1000C000010424020005240600010705830308003B
:1000D000FF09040100020A000000070502024000B7
:1000E00001070581024000010403090418034400CC
:1000F000650061006E002000430061006D00650036
:1001000072006100000028034C00550046004100C9
:10011000200052004E0044004900530020004300DC
:10012000440043002000440065006D006F000000A3
:10013000485454502F312E3120323030204F4B0D47
:100140000A5365727665723A204C55464120524EEC
:100150004449530D0A436F6E74656E742D74797043
:10016000653A20746578742F68746D6C0D0A436F5E
:100170006E6E656374696F6E3A20636C6F73650DA4
:100180000A0D0A00485454502F312E312034303497
:10019000204E6F7420466F756E640D0A536572763B
:1001A00065723A204C55464120524E4449530D0A3F
:1001B000436F6E6E656374696F6E3A20636C6F7324
:1001C000650D0A0D0A003C68746D6C3E093C68655B
:1001D00061643E09093C7469746C653E0909094C07
:1001E0005546412057656273657276657220446595
:1001F0006D6F09093C2F7469746C653E093C2F686A
:100200006561643E093C626F64793E09093C68316E
:100210003E48656C6C6F2066726F6D20796F7572E9
:100220002055534220415652213C2F68313E090946
:100230003C703E09090948656C6C6F212057656C5C
:10024000636F6D6520746F20746865204C5546415E
:1002500020524E4449532044656D6F2057656273A8
:100260006572766572207465737420706167652CA1
:100270002072756E6E696E67206F6E20796F757271
:10028000205553422041565220766961207468659A
:10029000204C554641206C6962726172792E20545F
:1002A0006869732064656D6F6E73747261746573D1
:1002B00020746865204854545020776562736572D5
:1002C0007665722C205443502F495020737461631B
:1002D0006B20616E6420524E4449532064656D6FFB
:1002E00020616C6C2072756E6E696E672061746F30
:1002F0007020746865204C55464120555342207348
:100300007461636B2E0909093C6272202F3E3C62C6
:1003100072202F3E0909093C736D616C6C3E50726E
:100320006F6A65637420496E666F726D6174696F80
:100330006E3A203C6120687265663D226874747074
:100340003A2F2F7777772E6C7566612D6C69622E48
:100350006F7267223E687474703A2F2F7777772E0A
:100360006C7566612D6C69622E6F72673C2F613E01
:100370002E3C2F736D616C6C3E0909093C6872203C
:100380002F3E0909093C693E4C554641205665728D
:1003900073696F6E3A203C2F693E31323032313909
:1003A00009093C2F703E093C2F626F64793E3C2F57
:1003B00068746D6C3E00010101000202010002013F
:1003C0000100030101000401010006010100110107
:1003D0000100070101000A0101000B0101000C01ED
:1003E00001000D0101000E010100110101001401C5
:1003F00001000101020002010200030102000401E8
:1004000002000501020001010101020101010301D5
:1004100001010401010101010201020102010301C4
:10042000020111241FBECFEFD0E2DEBFCDBF11E02D
:10043000A0E0B1E0EEE4FEE200E00BBF02C00790F6
:100440000D92A83FB107D9F714E1A8EFB1E001C0C0
:100450001D92AD31B107E1F74FD00C942517D0CDE7
:100460008BB18F70806A8BB908958BB18F7080616A
:100470008BB9089588E191E00C94C41388E191E070
:100480000E94741380FD02C090E901C090E68BB118
:100490008F70982B9BB9089584B7877F84BF38E10C
:1004A0000FB6F89430936000109260000FBE80E0A9
:1004B00090E020E80FB6F8942093610080936100EB
:1004C0000FBE8AB1806F8AB98BB18F708BB983E30D
:1004D00090E09093CD008093CC0086E08093CA009A
:1004E0001092C8003093C900539A5A9A0E94410E44
:1004F00080E090E00C94AA16CFDF5ED10E94690DD7
:100500008BB18F7080618BB9789488E191E00E9403
:100510004712882331F18BB18F7080628BB988E1EB
:1005200091E068EF71E044ED57E00E94171388EF07
:1005300091E066ED77E081D04091B20D5091B30D1E
:100540004115510551F088E191E066ED77E00E9498
:1005500061121092B30D1092B20D8BB18F70806644
:100560008BB988E191E066ED77E026D688E191E0ED
:100570000E94D2120E943412C8CFDA01923049F0A0
:10058000933061F09130F9F4E8E9F0E022E130E0F5
:100590001EC0EAEAF0E02EE330E019C0813049F0F5
:1005A000813018F0823079F408C0E8EEF0E08491F0
:1005B00007C0ECEEF0E0849103C0E6E0F1E0849146
:1005C000282F30E004C0E0E0F0E020E030E0ED93E0
:1005D000FC93C9010895CF93DF9376956795EC015D
:1005E00020E030E040E050E0E0E0F0E009C0899138
:1005F0009991A0E0B0E0280F391F4A1F5B1F319688
:10060000E617F707A0F30BC0DA01C901A070B070BC
:100610009A0144275527280F391F4A1F5B1FDA010B
:10062000C901807090700097A105B10569F7209508
:100630003095C901DF91CF9108950F931F93CF9308
:10064000DF93EC018B016CD0CE0163EB71E046E0EF
:1006500050E00E94F016009751F0CE016DEB71E072
:1006600046E050E00E94F016009709F050C0C452D6
:10067000DA4F88819981CC5DD540282F892F922F20
:100680008150964008F443C02C853D85822F232F4E
:10069000382F88E02030380759F026503840B9F517
:1006A000B801625F7F4FCE010E960E947A0B09C09F
:1006B000BE01625F7F4FA801425F5F4FCE010E9483
:1006C000F80B9C0118161906F4F4D8011696E3EB02
:1006D000F1E086E001900D928150E1F7D801FE0132
:1006E000369686E001900D928150E1F78C859D85CC
:1006F000F8019587848704521A4F225F3F4FF80113
:100700003183208304C0FFEF8F3F9F0721F0C45245
:10071000DA4F19821882DF91CF911F910F910895BE
:100720000895089508950895089508950895EF92FD
:10073000FF920F931F93CF93DF937C018B01EA010C
:10074000CB01F1DFF8018081883019F020E030E042
:100750002BC0188219821B821A82F801848195812C
:100760009D838C83868197819F838E83B801685F88
:100770007F4F8CED95E0E80EF91EF70180819181A5
:1007800087010C5D1540080F191F061B170BCE01C2
:100790000896A8010E940617085F1F4FCE01B801F6
:1007A0001ADF9B838A839801C901DF91CF911F9142
:1007B0000F91FF90EF9008951092F9138AE08093C3
:1007C000CA0F8093E0118093F61308959C018091E5
:1007D000F7139091F8138217930739F46093F91384
:1007E0005093FB134093FA1302C0613011F081E083
:1007F00008958091F913882311F080E008953093D3
:10080000F8132093F7136093F9135093FB1340935D
:10081000FA1381E008952091F7133091F813281707
:10082000390711F080E008958091F9130895362F6B
:10083000272F692F782FC90108954F925F926F92E9
:100840007F928F929F92AF92BF92CF92DF92EF9260
:10085000FF920F931F93DF93CF93CDB7DEB7289707
:100860000FB6F894DEBF0FBECDBF2C01FA0149834D
:100870005A836B837C83A8010D831E832F83388763
:1008800037010B811C81CF80D884872D9E2D4F018D
:10089000AA24BB2460E070E0840E951EA61EB71E3D
:1008A00020E036E040E050E0820E931EA41EB51E0C
:1008B00020E030E0800E911EA21EB31EEE24FF2425
:1008C0008C0C9D1CAE1CBF1CA0E0B0E0880E991ED5
:1008D000AA1EBB1EF301F695E795A20120E030E0C9
:1008E0000CC0DA018D919D91AD01A0E0B0E0880EC1
:1008F000991EAA1EBB1E2F5F3F4F2E173F0788F37E
:1009000060FE15C0EE0FFF1FE40DF51D8081880EFF
:10091000911CA11CB11C0BC0D501C401A070B0700A
:100920004501AA24BB24880E991EAA1EBB1ED50110
:10093000C401807090700097A105B10569F794011A
:1009400020953095C90128960FB6F894DEBF0FBEEA
:10095000CDBFCF91DF911F910F91FF90EF90DF906E
:10096000CF90BF90AF909F908F907F906F905F904F
:100970004F9008954F925F926F927F928F929F92C5
:10098000AF92BF92CF92DF92EF92FF920F931F939D
:10099000DF93CF9300D000D0CDB7DEB74C014983B1
:1009A0005A836B837C83590165EBE62E6DE0F62E4E
:1009B00000E010E056E1452E52E0552E3E0108942D
:1009C000611C711CF7018081918188159905D9F40A
:1009D000049D6001059DD00C149DD00C1124C6010E
:1009E0008754924FB30144E050E00E94F016009704
:1009F00051F4F701828193818A159B0521F49601B8
:100A00002354324F0BC00F5F1F4F86E192E0E80E78
:100A1000F91E03301105B1F620E030E0C9010F9056
:100A20000F900F900F90CF91DF911F910F91FF903A
:100A3000EF90DF90CF90BF90AF909F908F907F907E
:100A40006F905F904F9008954F925F926F927F9258
:100A50008F929F92AF92BF92CF92DF92EF92FF92CE
:100A60000F931F93DF93CF9300D000D0CDB7DEB7A5
:100A70004C0149835A836B837C835901E5EBEE2E4D
:100A8000EDE0FE2E00E010E076E1472E72E0572EFA
:100A90003E010894611C711CF701808191818815C9
:100AA0009905E1F4049D6001059DD00C149DD00CC6
:100AB0001124C6018754924FB30144E050E00E94D4
:100AC000F016009759F4F701828193818A159B05EE
:100AD00029F4F601E653F04F80810AC00F5F1F4FE3
:100AE00086E192E0E80EF91E03301105A9F68AE0CE
:100AF0000F900F900F900F90CF91DF911F910F915A
:100B0000FF90EF90DF90CF90BF90AF909F908F902D
:100B10007F906F905F904F9008953F924F925F92B9
:100B20006F927F928F929F92AF92BF92CF92DF92FD
:100B3000EF92FF920F931F93DF93CF9300D000D0DB
:100B4000CDB7DEB75C0149835A836B837C8349014F
:100B5000302E15EBE12E1DE0F12E00E010E0B6E1A5
:100B60004B2EB2E05B2E3E010894611C711CF70114
:100B7000808191818A159B05D9F4049D6001059DB2
:100B8000D00C149DD00C1124C6018754924FB30190
:100B900044E050E00E94F016009751F4F701828182
:100BA00093818815990521F4F601E653F04F47C06B
:100BB0000F5F1F4F86E192E0E80EF91E033011052A
:100BC000B1F68091CA0F8A3019F440E050E00FC0AE
:100BD0008091E0118A3019F441E050E008C0809122
:100BE000F6138A3011F080E02CC042E050E086E13C
:100BF00092E0489F9001499F300D589F300D11247D
:100C00002B54324FF901B182A08289819A81AB8144
:100C1000BC8184839583A683B7838BE091E0489F52
:100C2000F001499FF00D589FF00D1124EE0FFF1FAA
:100C3000E954F24F918280822B5E3D4FF901308260
:100C400081E00F900F900F900F90CF91DF911F9147
:100C50000F91FF90EF90DF90CF90BF90AF909F905B
:100C60008F907F906F905F904F903F900895AF92DC
:100C7000BF92CF92DF92EF92FF920F931F93CF9389
:100C8000DF937B015C016A01CB014EDDD701129637
:100C90008D919C911397BFDD813009F002C2F7015D
:100CA000858581FF0DC0D5011C964D915D916D919B
:100CB0007C911F97208131818281938100E02DDF1B
:100CC000F70185850280F381E02DD5011C964D91B9
:100CD0005D916D917C911F97D7012D913C9182FF81
:100CE00007C0CF010AE019DF882309F415C2D9C172
:100CF000CF01AADE843009F46FC1853048F4823018
:100D000009F456C0833008F082C0882359F004C229
:100D1000863009F4B3C1863008F474C1873009F015
:100D2000FBC136C1D7011D968C911D97823009F009
:100D3000F3C1F50144855585668577852D913C91F4
:100D4000119712968D919C91139702E0E6DE88230D
:100D500069F182E1D6011D968C93F5014485558594
:100D600066857785D7012D913C91119712968D91CB
:100D70009C911397FFDD8C01F70164817581868159
:100D8000978155DD6F5F7F4F8F4F9F4FD8016D93D8
:100D90007D938D939C931397F8011482158216828C
:100DA0001782045F1D4FD8011C92C4C184E0EDC0BE
:100DB000D7011D968C911D97803109F0ADC1F501C9
:100DC00044855585668577852D913C9111971296BE
:100DD0008D919C91139703E0A0DED5011C964D9157
:100DE0005D916D917C911F97F70120813181828106
:100DF0009381C0DDFC0184819581A681B781019634
:100E0000A11DB11D84839583A683B78385C1D701B6
:100E10001D968C918131A9F5F6018587D5011C9627
:100E20004D915D916D917C911F97F70120813181EA
:100E30008281938106E071DED5011C964D915D9112
:100E40006D917C911F97F70120813181828193817F
:100E500091DDFC0180819181A281B3810196A11D68
:100E6000B11D80839183A283B38384819581A68100
:100E7000B7810196A11DB11D84839583A683B78395
:100E800059C1803119F0883109F046C1D5011C964D
:100E90004D915D916D917C911F97F701208131817A
:100EA0008281938167DDEC01FC01E45FFD4F80816D
:100EB000882381F4C55FDD4F8881CB50D2408823E1
:100EC00049F4C65FDD4F1882CA50D24081E080836A
:100ED00019861886C65FDD4F8881CA50D2408823A4
:100EE00009F017C168857985F2E060307F0709F461
:100EF00010C1D5018C918F70F701448542954F70D8
:100F000050E0440F551F440F551F12960D911C9130
:100F10001397202F012F122F90E0880F991F880F11
:100F2000991F081B190B041B150B9B01265F3F4FD4
:100F30002C0F3D1F4E0D5F1DC901BA01A8010E9473
:100F4000FD16980140E050E088819981AA81BB811B
:100F5000820F931FA41FB51F88839983AA83BB8325
:100F600088859985800F911F998788878050924046
:100F700029F0D7011D968C9183FFCEC0C45FDD4F51
:100F80001882FE0181E0829380E1F6018587D2C05C
:100F9000D5011C964D915D916D917C911F97F70144
:100FA0002081318182819381E5DC21E1D6011D968A
:100FB0002C93FC01E45FFD4F1082F50144855585BB
:100FC00066857785D7012D913C91119712968D9169
:100FD0009C91139704E050C0F70185858131B9F0E9
:100FE000803109F099C0F50144855585668577857E
:100FF000D7012D913C91119712968D919C91139749
:1010000005E04DC0F7018585813109F085C0D50126
:101010001C964D915D916D917C911F97208131813E
:1010200082819381A7DCFC0180E1D6011D968C931F
:1010300080819181A281B3810196A11DB11D808320
:101040009183A283B38384819581A681B781019620
:10105000A11DB11D84839583A683B783F5014485C3
:10106000558566857785D7012D913C91119712960C
:101070008D919C9113970AE050DD5CC0F701858546
:10108000803109F049C0D5011C964D915D916D915B
:101090007C911F9720813181828193810AE03DDD1F
:1010A0003BC084E172CF82E090E0D6011F969C9312
:1010B0008E931E9709C080E092E028853985821BB7
:1010C000930BF60196878787D60153961C921E9242
:1010D000529751961C921E9250971C968C911C9779
:1010E000807F1C968C93F5014089518962897389B0
:1010F0000485158526853785C601E4E1EE2EF12CA1
:101100009CDBD60151969C938E93509724E130E05E
:1011100005C02FEF3FEF02C020E030E0C901DF91B2
:10112000CF911F910F91FF90EF90DF90CF90BF90E4
:10113000AF900895F5014485558566857785D7017B
:101140002D913C91119712968D919C91139712DCE1
:10115000EC01F70182819381D60111969C938E93C5
:101160008081918113969C938E9312976C817D81DF
:101170008E819F815CDBF601648375838683978310
:10118000688179818A819B8152DBD60118966D93A3
:101190007D938D939C931B971C968C911C978F70BD
:1011A00080651C968C93C45FDD4F8881CC50D24003
:1011B000882309F478CF7FCF2F923F924F925F928E
:1011C0006F927F928F929F92AF92BF92CF92DF9257
:1011D000EF92FF920F931F93DF93CF9300D000D035
:1011E000CDB7DEB77C836B8355EBE52E5DE0F52E46
:1011F00000E010E046E1C42E42E0D42E1CC08091F5
:10120000F913813079F40C9DB0010D9D700D1C9D7A
:10121000700D11246B53724FE091FA13F091FB1390
:10122000C70109950F5F1F4F26E132E0E20EF31E62
:101230000330110559F02091F7133091F813D701BD
:101240008D919C912817390769F7D9CFEB81FC81E3
:10125000E452FA4F80819181EC5DF540FC83EB8391
:10126000892B09F022C18091C70F882339F0809122
:10127000C80F882319F01A8219821BC08091DD11D2
:10128000882349F08091DE11882329F021E030E0A5
:101290003A8329830EC08091F313882309F405C192
:1012A0008091F413882309F400C182E090E09A83CE
:1012B00089833EE0A32EB12CAB81BC81AA0EBB1E5C
:1012C00022E2C22ED12CCA0EDB1E86E192E0E98119
:1012D000FA81E89F8001E99F100DF89F100D1124FD
:1012E00095EB692E9DE0792E600E711ED30150960C
:1012F0008D909C9051978D919C91EB81FC8193A353
:1013000082A38BE091E029813A81289FF001299FF7
:10131000F00D389FF00D1124EE0FFF1FE954F24F2E
:1013200080819181D60113969C938E931297F3013D
:1013300064857585868597857ADAD60114966D93CE
:101340007D938D939C931797F301608571858285BA
:1013500093856DDAD60118966D937D938D939C934A
:101360001B9782E090E01F969C938E931E9780E1DE
:101370001D968C931D9753961C921E9252975196D0
:101380001C921E92509780E51C968C932B813C8179
:101390002A5C3F4F0953124FC901B801A4010E94B2
:1013A000FD16C401A0E0B0E0F30124853585468533
:1013B0005785820F931FA41FB51F84879587A68723
:1013C000B78724E130E0820E931E2090B90130905F
:1013D000BA014090BB015090BC0104811581268167
:1013E0003781C601B201A101740127DAD6015196F5
:1013F0009C938E93509784010C5E1F4FF5011283CE
:101400000383118285E4AB81BC811E968C93168286
:101410001782158214821386128686E0818780E8FF
:1014200080872486358646865786F3018481958198
:10143000A681B781F501808B918BA28BB38BC501FF
:1014400064E170E0C8D8D5011B969C938E931A97DF
:10145000AB81BC811696E3EBF1E086E001900D9242
:101460008150E1F7AB81BC81EBECF1E086E00190CB
:101470000D928150E1F788E090E0EB81FC81958747
:101480008487E452FA4F025F1F4F1183008386E185
:1014900092E029813A81289FF001299FF00D389F21
:1014A000F00D1124E853F04F10820F900F900F9021
:1014B0000F90CF91DF911F910F91FF90EF90DF90F0
:1014C000CF90BF90AF909F908F907F906F905F90E4
:1014D0004F903F902F900895EF92FF920F931F939C
:1014E000CF93DF937C01EB018A01CB011ED98A8166
:1014F0009B81282F892F922F83349105E9F4BE0117
:10150000685F7F4FA801485F5F4FC7011FD09C01F4
:10151000181619068CF48A819B81F80191838083C7
:10152000888199819383828317821682C9010896E4
:10153000948385839C0102C020E030E0C901DF91E3
:10154000CF911F910F91FF90EF9008958F929F92EE
:10155000AF92BF92CF92DF92EF92FF920F931F93C1
:10156000CF93DF938B01EA015C0180EF882E912CF1
:10157000860E971ECB01DAD880EFFE0111928A9574
:10158000E9F7F8018181898382E0888382818A83F7
:101590001B8284819581A681B7818C839D83AE83D4
:1015A000BF8319861886828593859B878A87C0901A
:1015B000C701D090C801E090C901F090CA01C88A63
:1015C000D98AEA8AFB8A045E1F4FCE014C96B80185
:1015D00046E050E00E940617C451DF4F83E692E8D0
:1015E000A3E5B3E688839983AA83BB83CC5ED0400E
:1015F000F501C486D586E686F7868091B90190917B
:10160000BA01A091BB01B091BC01808B918BA28BE0
:10161000B38B5BC0853309F04DC094012E5F3F4F03
:10162000F4018281813019F0833009F048C0FE0155
:10163000E051FF4FDF0185E38D9381E08183ED0170
:101640002196F9018081813011F085E001C082E0AE
:1016500011968C93FE01319681E08983CF0101962A
:1016600034E03183DC0111962FEFFC012183FD0171
:10167000319611962C93DF0111962183FD0131964D
:1016800011961C92DF01119686E38183FD0131964C
:1016900011963C938091B9019091BA01A091BB0140
:1016A000B091BC0181839283A383B483258320E01E
:1016B00031E012C0882319F481E090E004C0F40105
:1016C000818190E00296880E991EF40180818F3FFF
:1016D00009F0A0CF20E030E0C901DF91CF911F9148
:1016E0000F91FF90EF90DF90CF90BF90AF909F90C1
:1016F0008F900895EF92FF920F931F93CF93DF93F4
:10170000182F092FF62EE72E0CD8C12FD02F8A8143
:101710009B81282F892F922F8050984009F05EC01E
:101720008E819F81282F892F922F019709F056C013
:10173000CE01489669EB71E044E050E00E94F0165B
:10174000009759F0CE01429663EB71E046E050E01D
:101750000E94F016009709F041C0EF2DFE2D888100
:101760009981918380838A819B81938382838C81F9
:1017700084838D81858380E092E0978386839F01B7
:101780002E5E3F4FAE01485F5F4F86E0DA010D905D
:10179000AD01D9010D929D018150C1F78E859F85C4
:1017A000A889B989808F918FA28FB38FEF01289676
:1017B000A3EBB1E086E00D9009928150E1F78091B2
:1017C000B9019091BA01A091BB01B091BC0186878B
:1017D0009787A08BB18B2CE130E002C020E030E095
:1017E000C901DF91CF911F910F91FF90EF90089564
:1017F000AF92BF92DF92EF92FF920F931F93CF931E
:10180000DF935C017B01EA01CB010E949203F701A7
:10181000D080FFE0DF228701005F1F4FC80169EB26
:1018200071E044E050E00E94F016009749F0C801D2
:1018300063EC71E044E050E00E94F016009771F410
:101840006D2D70E0660F771F660F771FF70181859A
:10185000863081F08131B1F0813019F020E030E044
:1018600047C06E0D7F1DAE014C5E5F4FC5010E94EB
:1018700097030FC06E0D7F1DAE014C5E5F4FC70119
:10188000F6D907C06E0D7F1DAE014C5E5F4FC701DC
:1018900023DE9C01181619065CF58C010C5E1F4FA7
:1018A0001A830B83198285E488831E821F821D821E
:1018B0001C821B861A86F7018185898780E88887C4
:1018C00080899189A289B3898C879D87AE87BF87DC
:1018D00084859585A685B785888B998BAA8BBB8BCC
:1018E000CE0164E170E00E94EB029B878A87980139
:1018F000C901DF91CF911F910F91FF90EF90DF9081
:10190000BF90AF900895DB010D900020E9F711978B
:10191000A61BB70BAD010E9417179C0180E0232B7B
:1019200009F481E00895AF92BF92CF92DF92EF92D7
:10193000FF920F931F93CF93DF935C01EB018B0119
:101940000E5F1F4F33E0C32E32E0D32EC60ED71EDC
:10195000F6018081882309F466C022E0E22EF22E8F
:10196000E60EF71EF7018081882309F0A7C0C801A1
:1019700061ED71E0C8DF8823F9F0C80165ED71E021
:10198000C2DF882349F11092B40DC80160E371E011
:101990000E94D11681E0F7018083F80101900020B8
:1019A000E9F73197E01BF10BF983E883F6018083B7
:1019B000CC5FDD4F888382C0C8016CED71E0A3DF8E
:1019C000882311F1C80161EE71E09DDF882321F0C9
:1019D000C80160E371E003C0C80164E871E00E94DF
:1019E000D11681E0F7018083F80101900020E9F72A
:1019F0003197E01BF10BF983E883F601808385E1E1
:101A000092E0A80EB91E57C0C80169EE71E07BDFF5
:101A1000882321F081E0F7018083EFCFF601108267
:101A2000198218824BC0CC5FDD4F8881C450D240F0
:101A3000882309F443C0CE5FDD4F8881C250D24075
:101A40008823E1F18091B40DC82EDD24D694DC2CDE
:101A5000CC24D794C79486EC91E0C80ED91EC60159
:101A60000E94D8167C0191E8E916F10418F080E88C
:101A7000E82EF12CC801B601A7010E94E116CE5F45
:101A8000DD4F81E08883C250D240F982E882CD5F89
:101A9000DD4F8883C350D2408091B40D8F5F809317
:101AA000B40D8150833051F4CC5FDD4F1882E5E1F5
:101AB000F2E0AE0EBF1E87E0F5018083DF91CF918B
:101AC0001F910F91FF90EF90DF90CF90BF90AF905C
:101AD000089580E090E561E043E95CE00C94E60362
:101AE000382F282F2CC02093E900231721F4762FBC
:101AF000942F50E006C07091EC009091ED00509151
:101B0000F00091FF1BC08091EB008E7F8093EB0073
:101B10008091ED008D7F8093ED008091EB008160DE
:101B20008093EB007093EC009093ED005093F000E5
:101B30008091EE0087FD02C080E008952F5F27307E
:101B400090F23093E90081E0089580910114882398
:101B50009CF404C0809100148823B9F08091E800BF
:101B600082FFF8CF8091E8008B778093E80008959A
:101B700080910014882349F08091E80080FFF8CF1D
:101B80008091E8008E778093E80008954091E4000A
:101B90005091E50024E68091EC0080FF24C0809104
:101BA000E80080FD1EC080910014882311F482E0BB
:101BB0000895853011F483E008958091EB0085FF4E
:101BC00002C081E008958091E4009091E5008417BF
:101BD000950709F3222311F484E008952150AC0104
:101BE000DACF80E008958091E80082FFDCCFF9CF62
:101BF000EF92FF920F931F934DD054D008ED10E059
:101C0000F80180818F7780838081806880838081E4
:101C10008F7D8083E7EDF0E080818068808319BC50
:101C2000109200141092FC131092FE131092FD13E8
:101C300080EEE82EF12CF70180818B7F8083F80104
:101C400080818160808380E060E042E049DFE1EEF6
:101C5000F0E080818E7F8083E2EEF0E08081816021
:101C60008083808188608083F70180818E7F80837C
:101C7000F8018081806180831F910F91FF90EF9028
:101C80000895E7EDF0E080818160808381E08093BA
:101C9000FF13AECFE8EDF0E080818C7F808310925F
:101CA000E20008951092DA001092E10008951F9268
:101CB0000F920FB60F920BB60F9211242F933F93F2
:101CC0004F935F936F937F938F939F93AF93BF9344
:101CD000EF93FF938091E10082FF0AC08091E200C0
:101CE00082FF06C08091E1008B7F8093E100BBD32F
:101CF0008091DA0080FF1FC08091D80080FF1BC058
:101D00008091DA008E7F8093DA008091D90080FF85
:101D10000DC08CE089BD8EE089BD09B400FEFDCF09
:101D200081E0809300140E94300205C019BC10921B
:101D300000140E9435028091E10080FF18C080915C
:101D4000E20080FF14C08091E2008E7F8093E20069
:101D50008091E20080618093E2008091D8008062EF
:101D60008093D80019BC85E0809300147CD38091C7
:101D7000E10084FF2DC08091E20084FF29C08CE047
:101D800089BD8EE089BD09B400FEFDCF8091D800E9
:101D90008F7D8093D8008091E1008F7E8093E10059
:101DA0008091E2008F7E8093E2008091E20081606A
:101DB0008093E2008091FC13882331F48091E3004A
:101DC00087FD02C081E001C084E0809300144BD302
:101DD0008091E10083FF22C08091E20083FF1EC05A
:101DE0008091E100877F8093E10082E0809300147E
:101DF0001092FC138091E1008E7F8093E10080912E
:101E0000E2008E7F8093E2008091E2008061809307
:101E1000E20080E060E042E063DE25D3FF91EF91D5
:101E2000BF91AF919F918F917F916F915F914F91F2
:101E30003F912F910F900BBE0F900FBE0F901F90F0
:101E400018959C01409107145091081446175707A4
:101E500018F4F90190E03DC06115710511F0AB0176
:101E6000F8CF8091E8008E778093E80040E050E062
:101E7000F0CF809100148823F1F18530F1F1809149
:101E8000E80083FF02C081E008958091E80082FDB0
:101E90002CC08091E80080FF1CC02091F20030919E
:101EA000F30007C081918093F100415050402F5FB3
:101EB0003F4F4115510519F02830310598F390E056
:101EC0002830310509F491E08091E8008E77809305
:101ED000E8004115510569F6992359F606C080912D
:101EE0000014882341F0853041F08091E80082FFA2
:101EF000F6CF80E0089582E0089583E008959C0184
:101F00006115710529F48091E8008B778093E800D2
:101F1000F90122C080910014882371F1853071F19C
:101F20008091E80083FF02C081E008958091E8007D
:101F300082FFF0CF06C08091F10081936150704024
:101F400031F08091F2009091F300892BA1F78091FC
:101F5000E8008B778093E80061157105D9F606C01B
:101F600080910014882341F0853041F08091E80091
:101F700080FFF6CF80E0089582E0089583E0089521
:101F80009C0140910714509108144617570718F404
:101F9000F90190E040C06115710511F0AB01F8CF77
:101FA0008091E8008E778093E80040E050E0F0CF29
:101FB00080910014882309F440C0853009F43FC0A3
:101FC0008091E80083FF02C081E008958091E800DD
:101FD00082FD2DC08091E80080FF1DC02091F2009D
:101FE0003091F30008C084918093F1003196415004
:101FF00050402F5F3F4F4115510519F028303105F2
:1020000090F390E02830310509F491E08091E800E8
:102010008E778093E8004115510551F6992341F6DA
:1020200006C080910014882341F0853041F08091F2
:10203000E80082FFF6CF80E0089582E0089583E013
:102040000895BF92CF92DF92EF92FF920F931F936A
:10205000CF93DF93182F092F7B016A0197DDB82EEC
:102060008823B1F5812F902F9C01E901C114D1047F
:1020700039F0F60180819181E81AF90AC80FD91F59
:1020800000E010E022C08091E80085FD16C080913C
:10209000E8008B778093E800E7D1C114D10449F0C0
:1020A000F60180819181800F911F9183808385E06B
:1020B00010C06CDD882349F00CC08091F100899339
:1020C0000894E108F1080F5F1F4FE114F104D9F6FD
:1020D0008B2DDF91CF911F910F91FF90EF90DF90AB
:1020E000CF90BF900895BF92CF92DF92EF92FF9270
:1020F0000F931F93CF93DF93182F092F7B016A0152
:1021000045DDB82E8823B1F5812F902F9C01E90180
:10211000C114D10439F0F60180819181E81AF90ADD
:10212000C80FD91F00E010E022C08091E80085FDB3
:1021300016C08091E8008E778093E80095D1C11495
:10214000D10449F0F60180819181800F911F918324
:10215000808385E010C01ADD882349F00CC0899186
:102160008093F1000894E108F1080F5F1F4FE1141C
:10217000F104D9F68B2DDF91CF911F910F91FF9034
:10218000EF90DF90CF90BF9008950F931F93DF9350
:10219000CF93CDB7DEB7AC970FB6F894DEBF0FBEC6
:1021A000CDBFE1E0F4E18091F100819324E1E930D9
:1021B000F207C9F70E943A028091E80083FF3AC112
:1021C0008091011430910214353009F487C0363003
:1021D00040F43130C9F1313070F0333009F02AC1A8
:1021E00033C0383009F4F7C0393009F406C136304D
:1021F00009F020C197C0803821F0823809F01AC157
:1022000008C09091FD138091FE13882399F092608D
:1022100011C0809105148F708093E9008091EB00CC
:1022200090E025E0969587952A95E1F7982F917093
:102230001092E9008091E800877F8093E8009093F6
:10224000F1001092F100D2C0882319F0823009F019
:10225000F1C090E08F719070009721F0029709F023
:10226000E9C00CC080910314813009F0E3C01092E2
:10227000FE13333069F58093FE132AC08091031456
:10228000882331F5209105142F7009F4D3C02093D1
:10229000E9008091EB0080FF1BC0333021F4809176
:1022A000EB00806213C08091EB0080618093EB00B3
:1022B00081E090E002C0880F991F2A95E2F7809391
:1022C000EA001092EA008091EB0088608093EB00B6
:1022D0001092E9008091E800877F8BC0882309F085
:1022E000A9C0109103141F770FB7F8948091E800EC
:1022F000877F8093E80029DC8091E80080FFFCCF95
:102300008091E3008078812B8093E3008068809344
:10231000E300112311F482E001C083E080930014F4
:102320000FBF88C08058823008F084C080910314A9
:102330009091041423E08C3D920709F033C083E0B0
:102340008C838AE28B837FB7F894DE0115966EE06A
:1023500040E050E011E2E62FF0E010935700849146
:1023600040FF03C082958F706F5F8F70282F30E021
:102370008A3018F0C901C79602C0C901C0968D9372
:102380009D934F5F5F4F4431510529F77FBF809187
:10239000E800877F8093E800CE0103966AE270E050
:1023A00050DD13C060910514AE014F5F5F4F0E9476
:1023B000BD02BC01009709F43DC08091E800877F11
:1023C0008093E80089819A81DBDD8091E8008B773A
:1023D0008093E8002FC0803869F58091E800877FFE
:1023E0008093E8008091FC138093F1008091E800D5
:1023F0008E778093E800A9DB1DC08823D9F49091E3
:1024000003149230B8F48091E800877F8093E8004D
:102410009093FC139ADB8091FC13882331F4809114
:10242000E30087FD02C081E001C084E080930014D6
:102430000E943E028091E80083FF0AC08091EB0079
:1024400080628093EB008091E800877F8093E800B2
:10245000AC960FB6F894DEBF0FBECDBFCF91DF9123
:102460001F910F91089508951F9380910014882360
:1024700061F01091E9001092E9008091E80083FF7B
:1024800001C083DE1F701093E9001F910895FC01C5
:1024900080910014843099F4EA56FF4F8081E65908
:1024A000F040823061F485818093E9008091E800FA
:1024B00090E096958795969587958170089580E030
:1024C0000895CF92DF92FF920F931F93DF93CF93E4
:1024D000CDB7DEB7AC970FB6F894DEBF0FBECDBF59
:1024E000FC016B018A0180910014843009F049C01D
:1024F000EA56FF4F8081E659F040823009F041C032
:1025000081818093E90042DBF82E8823E1F5FE010A
:1025100031968CE2DF011D928A95E9F781E090E027
:10252000A0E0B0E089839A83AB83BC83045D1F4F36
:10253000C801A0E0B0E00C5210408D839E83AF83B1
:10254000B88784E290E0A0E0B0E089879A87AB8703
:10255000BC87C801A0E0B0E08D879E87AF87B88BAD
:10256000CF016CE270E040E050E0BDDDC601B80193
:1025700040E050E0B8DD8091E8008E778093E8007D
:1025800002C032E0F32E8F2DAC960FB6F894DEBF6A
:102590000FBECDBFCF91DF911F910F91FF90DF90C4
:1025A000CF9008950F931F93DF93CF93CDB7DEB7EE
:1025B00028970FB6F894DEBF0FBECDBF8C01809177
:1025C0000014843049F5F80181858093E9008091F9
:1025D000E80080FF21C00B561F4FF801808105598C
:1025E00010408823C9F0DE011196EFEEF1E088E09B
:1025F00001900D928150E1F7CE01019668E070E004
:1026000040E050E070DD8091E8008E778093E80034
:102610000B561F4FF801108228960FB6F894DEBFB4
:102620000FBECDBFCF91DF911F910F910895EF9213
:10263000FF920F931F93DF93CF93CDB7DEB7AC9785
:102640000FB6F894DEBF0FBECDBFFC017B018A013F
:10265000809100148430D1F5EA56FF4F8081E6590D
:10266000F040823099F585818093E900FA0111826A
:1026700010828091E80082FF27C0CE0101966CE2B3
:1026800070E040E050E0DDDC2D853E854F855889C7
:102690002D3DF5E03F07F0E04F07F0E05F0738F031
:1026A0008091EB0080628093EB0080E810C0F8011D
:1026B00031832083C701B90140E050E0C2DC809142
:1026C000E8008B778093E80080E001C082E0AC9660
:1026D0000FB6F894DEBF0FBECDBFCF91DF911F9133
:1026E0000F91FF90EF9008951F93CF93DF93EC012C
:1026F0004596FC0186E8DF011D928A95E9F711E015
:102700008981181729F46A817B818C8152E010C07D
:102710008D81181731F46E817F81888552E030E019
:1027200008C08985181739F56A857B858C8553E043
:1027300030E8882311F440E001C044E020E088E064
:1027400090E003C02F5F880F991F86179707D0F37B
:10275000852F90E056E0880F991F5A95E1F760E0C9
:10276000311161E0682B42602295207F422B812F3E
:10277000B7D9882329F01F5F173009F0C1CF81E056
:10278000DF91CF911F910895EF92FF920F931F93C6
:10279000CF93DF93EC018091E80083FFB6C288817C
:1027A00090E020910514309106142817390709F09C
:1027B000ACC280910214882321F0813009F0A5C2B7
:1027C00057C280910114813209F09FC28091E800C4
:1027D000877F8093E8008E010B5E1F4F6091071486
:1027E00070910814C8018BDB8091E8008E7780938C
:1027F000E8008D899E89AF89B88D84309105A10547
:10280000B10509F477C085309105A105B10558F4EB
:1028100082309105A105B105C1F00397A105B1056D
:1028200009F073C25DC086309105A105B10509F4B8
:10283000E7C186309105A105B10508F496C1089756
:10284000A105B10509F061C2F7C1CB56DF4F21E008
:102850002883C559D04082E090E0A0E0B0E88D8B9D
:102860009E8BAF8BB88F84E390E0A0E0B0E0F801DE
:1028700084839583A683B783148615861686178668
:1028800081E090E0A0E0B0E0808B918BA28BB38BD5
:10289000148A158A168A178A808F918FA28FB38F18
:1028A000148E158E168E178E80A391A3A2A3B3A3A8
:1028B00088E096E0A0E0B0E084A395A3A6A3B7A328
:1028C00010A611A612A613A614A615A616A617A63C
:1028D00010AA11AA12AA13AACA56DF4F288315C23A
:1028E000CB56DF4F1992F801148215821682178297
:1028F00018820BC2CB56DF4F81E08883C559D04088
:10290000F8012485358546855785FDE2EF2EF12CAB
:10291000EC0EFD1E84E090E0A0E0B0E88D8B9E8B75
:10292000AF8BB88F2E30F1E03F07F1E04F07F0E0BA
:102930005F0709F4E7C02F3061E0360761E0460722
:1029400060E0560708F058C0263081E0380781E083
:10295000480780E0580709F4AEC02730E1E03E07A1
:10296000E1E04E07E0E05E07F8F42230F1E03F07D7
:10297000F1E04F07F0E05F0709F4CDC0233061E0DC
:10298000360761E0460760E0560738F421503140D1
:102990004140504009F0CFC080C0255031404140F7
:1029A000504008F0C8C0B7C02C30F1E03F07F1E05C
:1029B0004F07F0E05F0780F42A3061E0360761E0FE
:1029C000460760E0560708F076C027503140414086
:1029D000504009F0B0C081C02C30E1E03E07E1E09A
:1029E0004E07E0E05E0709F461C02D5031404140E0
:1029F000504009F0A0C064C0263061E0360762E0B4
:102A0000460760E0560710F5213081E0380782E084
:102A1000480780E0580708F07EC02431E1E03E0717
:102A2000E1E04E07E0E05E0709F475C02230F2E015
:102A30003F07F1E04F07F0E05F0709F46CC0215158
:102A400031404140504009F076C06AC0243081E0F6
:102A5000380781E0480781E0580709F44EC0253067
:102A6000E1E03E07E1E04E07E1E05E0758F4215067
:102A7000314041405140223031054105510508F0B7
:102A80005AC030C0215031404240514023303105BE
:102A90004105510508F04FC03EC0C70166EB73E029
:102AA0004CE650E075D1CCE6D0E012C18FEF9FEF3D
:102AB000AFEFB0E039C08CED95E0A0E0B0E034C0FD
:102AC0006D857E85FB01EF0109900020E9F7CE1BA3
:102AD000DF0BC701AE0191D1FBC080EA96E8A1E00F
:102AE000B0E022C0D701FE013F9686E001900D9232
:102AF0008150E1F7C6E0D0E0EBC081E090E0A0E0DB
:102B0000B0E012C0C956DF4F88819981AA81BB818C
:102B1000C759D04009C01DA61EA61FA618AA08C0E6
:102B20008CE596E0A0E0B0E08DA79EA7AFA7B8AB7C
:102B3000C4E0D0E0CDC08BEB90E0A0E0B0ECF801B9
:102B400084879587A687B78788E190E0A0E0B0E00A
:102B500084839583A683B783108A118A128A138A85
:102B6000148A158A168A178AD0C0CB56DF4F81E0A7
:102B70008883C559D040F801248535854685578519
:102B800085E090E0A0E0B0E88D8B9E8BAF8BB88F96
:102B900080E190E0A0E0B0E084839583A683B783D2
:102BA00084899589A689B7892E30F1E03F07F1E045
:102BB0004F07F0E05F0751F0235031404140514052
:102BC000A9F08BEB90E0A0E0B0EC14C0FE01E80FA0
:102BD000F91F858D968DA78DB0A1C956DF4F8883CB
:102BE0009983AA83BB83FE0182E0829380E090E018
:102BF000A0E0B0E0F80184879587A687B78785C0F5
:102C0000CB56DF4F81E08883C559D04086E090E005
:102C1000A0E0B0E88D8B9E8BAF8BB88F80E190E009
:102C2000A0E0B0E0F80184839583A683B783108683
:102C300011861286138617C0CB56DF4F81E088833A
:102C4000C559D04088E090E0A0E0B0E88D8B9E8B25
:102C5000AF8BB88F80E190E0A0E0B0E0F801848312
:102C60009583A683B78314861586168617864DC06E
:102C700080910114813A09F048C08E010B5E1F4F0C
:102C8000F80184819581A681B7810097A105B105DE
:102C900049F41D8A81E090E0A0E0B0E08483958350
:102CA000A683B7838091E800877F8093E800F801CE
:102CB00064817581CE014596C4D88091E8008B77F8
:102CC0008093E800F80114821582168217821DC0D5
:102CD000F80114861586168617866896CE01A0E040
:102CE000B0E0689784839583A683B783CE01A0E084
:102CF000B0E0808B918BA28BB38B80E190E0A0E061
:102D0000B0E0848B958BA68BB78BDF91CF911F9111
:102D10000F91FF90EF900895982F8091C80085FF44
:102D2000FCCF9093CE0080E090E008958091C800A1
:102D300087FD03C02EEF3FEF0BC08091C80087FDD9
:102D400003C02FEF3FEF04C08091CE00282F30E06A
:102D5000C9010895FC01009759F489E094E190932A
:102D600018148093171490931A1480931914FC016B
:102D70008EE0DF011D928A95E9F783E083838CE87A
:102D800096E19187808786E996E193878287089507
:102D9000FB01DC0102C005900D9241505040D8F774
:102DA0000895FB01DC0105900D920020E1F70895E4
:102DB000FC0105900020E9F7809590958E0F9F1FEC
:102DC0000895FB01DC014150504048F005900D9200
:102DD0000020C9F701C01D9241505040E0F708950E
:102DE000FB01DC0104C08D910190801921F4415058
:102DF0005040C8F7881B990B0895FB01DC0102C005
:102E000001900D9241505040D8F708956817790706
:102E100068F4FB01DC01E40FF51FA40FB51F02C02D
:102E200002900E9241505040D8F70895E6CFFB0132
:102E3000DC014150504030F08D910190801919F41F
:0E2E40000020B9F7881B990B0895F894FFCF76
:102E4E004C55464120524E4449532044656D6F20E7
:102E5E004164617074657200000140000002400020
:102E6E000003080000000102000200020000000042
:102E7E000000000000000000000000000000000044
:102E8E000000000000000000000000000000000034
:102E9E000000000000000000000000000000000024
:102EAE000000000000000000000000000000000014
:102EBE000000000000000000000000000000000004
:102ECE0000000000000000000000000000000000F4
:102EDE0000000000000000000000000000000000E4
:102EEE0000000000000000000000000000000000D4
:102EFE000000000001000100010A000002FFFFFFB8
:102F0E00FFFFFFFFFFFFFF0A0000010200020002A9
:102F1E000047455400474554202F20004845414462
:102F2E000048454144202F2000545241434500A102
:082F3E0001000000000000008A
:00000001FF
