:100000009AC00000B4C00000B2C00000B0C0000040
:10001000AEC00000ACC00000AAC00000A8C0000034
:10002000A6C00000A4C00000A2C0000028C40000B8
:10003000EDC300009CC000009AC0000098C0000002
:1000400096C0000094C0000092C0000090C0000064
:100050008EC000008CC000008AC00000D6C0000026
:1000600086C0000084C0000082C0000080C0000084
:100070007EC000007CC000007AC0000078C0000094
:1000800076C0000074C0000072C0000070C00000A4
:100090006EC000006CC000001201100102000008D8
:1000A000EB034B2001000102DC0109023E000201CA
:1000B00000C0320904000001020201000524001002
:1000C0000104240206052406000107058203080036
:1000D000FF09040100020A000000070504021000E5
:1000E00001070583021000010403090418034400FA
:1000F000650061006E002000430061006D00650036
:1001000072006100000030034C00550046004100C1
:1001100020005500530042002D00520053003200D1
:100120003300320020004100640061007000740060
:1001300065007200000011241FBECFEFD2E0DEBFC9
:10014000CDBF11E0A0E0B1E0E4EEF1E102C0059026
:100150000D92A836B107D9F712E0A8E6B1E001C0C8
:100160001D92AC38B107E1F785D00C94F00848CF68
:10017000CF93DF93482F8EB3843009F029C08FB717
:10018000F8942091FE013091FF018FBF8091FC0116
:100190009091FD0128173907D9F0C4EFD1E0E8812B
:1001A000F9814083888199810196998388832E8182
:1001B0003F818217930721F48C819D8199838883E5
:1001C0002FB7F8948A859B8501969B878A872FBFD6
:1001D00080E090E0DF91CF910895CF93DF93EC0121
:1001E00002C0C6DF219688818823D9F7DF91CF919D
:1001F00008958BB180638F7D8BB980E091E0EDCF66
:100200008BB180638F7E8BB908951F920F920FB6CA
:100210000F9211240F900FBE0F901F901895089504
:1002200081E291E0B6C68EE091E0D7DF81E291E015
:1002300060D680FD02C090E101C090E28BB1909544
:10024000806398239BB9089584B7877F84BF88E132
:100250000FB6F89480936000109260000FBEF9D042
:100260008AB180638AB98BB180638BB9C0D284E0D4
:1002700085BD0895EF92FF920F931F93CF93DF9365
:10028000E3DFE8E6F1E02FB7F89484E791E09183AB
:100290008083938382839583848384EF91E0978323
:1002A000868380E890E091878087138612862FBF2F
:1002B000E4EFF1E02FB7F89480E092E0918380833F
:1002C000938382839583848380E892E097838683F7
:1002D00080E890E091878087138612862FBF8BB1CC
:1002E00080638F7E8BB9789484EFE82E81E0F82EBE
:1002F00000E010E025D18FB7F894C091FE01D091B5
:10030000FF018FBFA89903C0C136D10530F1A89A6B
:1003100022C0E091F601F091F70181E291E0608165
:10032000C4D58823D1F4F701828193810196938308
:100330008283268137818217930721F484819581F6
:10034000938382832FB7F89482859385019793874F
:1003500082872FBF21972097E1F60F5F1F4F81E023
:10036000053F180709F0C6CF81E291E08FD550D53F
:10037000BFCF5F9820E030E050E061E097FF02C01F
:100380002A9A01C02A98220F331F1B992160299AAB
:10039000462F4A95F1F729985F5F503119F0880F81
:1003A000991FECCF5F9AC901089590E0F5E0880F9E
:1003B000991FFA95E1F7907050E047705070842BC8
:1003C000952B946970E063707070E3E0660F771F9F
:1003D000EA95E1F7862B972BCCCF8036910518F460
:1003E00080E690E006C02FE08034920710F08FE3A3
:1003F0009FE0906ABECF22E087399207D8F09C0137
:1004000040E050E08851954158F460E678EA80E099
:1004100090E088D6DA01C90101978068966CA9CF6F
:100420006CEF72E485E090E05BD6DA01C9010197D8
:10043000966C9FCF089590E087709070986970E0F7
:10044000A4E0660F771FAA95E1F77070862B972BB3
:1004500090CF86E084B988E88AB95F9A5B9A20E0F9
:1004600040E45CE9CA010197F1F72F5F2A30D1F728
:1004700080EE90EC7EDF87EE90E87BDF8BEA92ECFB
:1004800078DF81E89AEC75DF80E090EE72DF80E043
:1004900098EC6FDF87EF94EC6CDF8BE796E09DDFE5
:1004A00084E061E044E081DF8AE992E0A4DF80E05B
:1004B00066E0C1CFCECF08952A982F98000020E1A2
:1004C00037E245E007C0882329F021503040942FBF
:1004D0009A95F1F71B9903C021153105A1F72F9AC1
:1004E00080E0232B09F081E00895CF93DF93EC01A6
:1004F00081E0E2DF882329F080E090EB3ADF888317
:1005000081E0DF91CF9108950F931F9388EC92E8DB
:1005100030DF00E41CE9C8010197F1F781E89AECAB
:1005200028DFC8010197F1F783E89AEC22DFC801C0
:100530000197F1F71F910F91089588E092E819CF84
:10054000AF92BF92CF92DF92EF92FF920F931F93E1
:10055000DF93CF93CDB7DEB7C455D0400FB6F89434
:10056000DEBF0FBECDBF80E090E003DF96FF03C08B
:1005700089E391E004C095FF05C08AE491E02DDE97
:1005800099DF5AC091FD58C095E1A92EB12CAC0E4F
:10059000BD1E7501CC24DD24F7011082C701A5DF43
:1005A000898D853651F0863618F4843561F408C09B
:1005B000883648F403E110E008C009E010E005C007
:1005C00009E110E002C006E010E00894C11CD11C53
:1005D0000894E11CF11CC016D106F0F2AEDF85E3F1
:1005E0008A95F1F791DF0630110531F180E691E04F
:1005F000F4DD85E1E82EF12CEC0EFD1EE00EF11E7F
:100600008E010F5F1F4F12C0F501808190E0B8018D
:1006100040E150E0A2D5F5018081803110F480E303
:10062000A7DDC801DADD0894A11CB11CAE14BF041B
:1006300059F784E691E0D1DDCC5ADF4F0FB6F8943C
:10064000DEBF0FBECDBFCF91DF911F910F91FF9005
:10065000EF90DF90CF90BF90AF900895DA01923085
:1006600049F0933061F09130F9F4E8E9F0E022E1EB
:1006700030E01EC0EAEAF0E02EE330E019C081303D
:1006800049F0813018F0823079F408C0E8EEF0E0EB
:10069000849107C0ECEEF0E0849103C0E6E0F1E065
:1006A0008491282F30E004C0E0E0F0E020E030E06A
:1006B000ED93FC93C90108958093E9008091EB00CC
:1006C00081608093EB001092ED006093EC0040930A
:1006D000ED008091EE00881F8827881F0895809183
:1006E000840288238CF403C08EB38823B1F08091F8
:1006F000E80082FFF9CF8091E8008B778093E800D3
:1007000008958EB3882349F08091E80080FFF9CFE7
:100710008091E8008E778093E80008954091E4008E
:100720005091E50024E68091EC0080FF23C0809189
:10073000E80080FD1DC08EB3882311F482E0089587
:10074000853011F483E008958091EB0085FF02C0AD
:1007500081E008958091E4009091E5008417950769
:1007600011F3222311F484E008952150AC01DBCF72
:1007700080E008958091E80082FFDDCFF9CF40D07E
:1007800042D08091D8008F778093D8008091D80094
:1007900080688093D8008091D8008F7D8093D800A6
:1007A00084E089BD86E089BD09B400FEFDCF1EBA94
:1007B00010928002109282021092810280E060E02A
:1007C00042E07ADF8091E1008E7F8093E1008091AA
:1007D000E20081608093E2008091E2008860809373
:1007E000E2008091E0008E7F8093E0000895E3E6D0
:1007F000F0E080818E7F808381E080938302BFCF91
:100800001092E20008951092E10008951F920F9255
:100810000FB60F9211241F932F933F934F935F9323
:100820006F937F938F939F93AF93BF93EF93FF93B8
:10083000E9EEF0E010811F701082E0EFF0E08081BF
:10084000877F808378947AD1A9EEB0E01C92E0EFA4
:10085000F0E08081886080831C93FF91EF91BF91CD
:10086000AF919F918F917F916F915F914F913F9148
:100870002F911F910F900FBE0F901F9018951F92F0
:100880000F920FB60F9211242F933F934F935F93C4
:100890006F937F938F939F93AF93BF93EF93FF9348
:1008A0008091E10082FF0AC08091E20082FF06C0D1
:1008B0008091E1008B7F8093E100A9D28091E100DB
:1008C00080FF16C08091E20080FF12C08091E2009C
:1008D0008E7F8093E2008091E20080618093E2004D
:1008E0008091D80080628093D80019BC1EBA88DC41
:1008F0008091E10084FF2CC08091E20084FF28C039
:1009000084E089BD86E089BD09B400FEFDCF8091F9
:10091000D8008F7D8093D8008091E1008F7E8093F6
:10092000E1008091E2008F7E8093E2008091E200FE
:1009300081608093E20080918002882331F480916D
:10094000E30087FD02C081E001C084E08EBB51DC82
:100950008091E10083FF26C08091E20083FF22C0E6
:100960008091E100877F8093E10082E08EBB10924E
:1009700080028091E1008E7F8093E1008091E2000F
:100980008E7F8093E2008091E20080618093E2009C
:1009900080E060E042E090DE8091F000886080932B
:1009A000F00035D2FF91EF91BF91AF919F918F9160
:1009B0007F916F915F914F913F912F910F900FBE5B
:1009C0000F901F9018959C0140918A0250918B02C4
:1009D0004617570718F4F90190E03CC061157105FE
:1009E00011F0AB01F8CF8091E8008E778093E8009A
:1009F00040E050E0F0CF8EB38823E9F18530E9F193
:100A00008091E80083FF02C081E008958091E800B2
:100A100082FD2BC08091E80080FF1CC08091F20015
:100A2000282F30E007C081918093F1004150504061
:100A30002F5F3F4F4115510519F02830310598F3CC
:100A400090E02830310509F491E08091E8008E773C
:100A50008093E8004115510571F6992361F605C0B0
:100A60008EB3882341F0853041F08091E80082FF09
:100A7000F7CF80E0089582E0089583E008959C0117
:100A800040918A0250918B024617570718F4F901DA
:100A900090E03FC06115710511F0AB01F8CF809176
:100AA000E8008E778093E80040E050E0F0CF8EB30E
:100AB000882309F43FC0853009F43EC08091E800E6
:100AC00083FF02C081E008958091E80082FD2CC080
:100AD0008091E80080FF1DC08091F200282F30E057
:100AE00008C084918093F1003196415050402F5FAF
:100AF0003F4F4115510519F02830310590F390E032
:100B00002830310509F491E08091E8008E778093D8
:100B1000E8004115510559F6992349F605C08EB3F1
:100B2000882341F0853041F08091E80082FFF7CFC3
:100B300080E0089582E0089583E008950F931F9365
:100B4000DF93CF93CDB7DEB7AC970FB6F894DEBF87
:100B50000FBECDBFE4E8F2E08091F100819322E086
:100B6000EC38F207C9F75CDB8091E80083FF36C1FF
:100B70008091840230918502353009F487C0363087
:100B800040F43130C9F1313070F0333009F026C112
:100B900033C0383009F4F5C0393009F404C13630B7
:100BA00009F01CC196C0803821F0823809F016C1C6
:100BB00008C09091810280918202882399F092600E
:100BC00011C0809188028F708093E9008091EB00C2
:100BD00090E025E0969587952A95E1F7982F9170FA
:100BE0001092E9008091E800877F8093E80090935D
:100BF000F1001092F100D0C0882319F0823009F082
:100C0000EDC090E08F719070009721F0029709F08D
:100C1000E5C00CC080918602813009F0DFC01092DF
:100C20008202333069F5809382022AC08091860265
:100C3000882331F5209188022F7009F4CFC02093CA
:100C4000E9008091EB0080FF1BC0333021F48091DC
:100C5000EB00806213C08091EB0080618093EB0019
:100C600081E090E002C0880F991F2A95E2F78093F7
:100C7000EA001092EA008091EB0088608093EB001C
:100C80001092E9008091E800877F89C0882309F0ED
:100C9000A5C0109186021F770FB7F8948091E800E5
:100CA000877F8093E8001BDD8091E80080FFFCCF08
:100CB0008091E3008078812B8093E30080688093AB
:100CC000E300112311F482E001C083E08EBB0FBF6B
:100CD00085C08058823008F081C080918602909152
:100CE000870223E08C3D920709F033C083E08C83B8
:100CF0008AE28B837FB7F894DE0115966EE040E0C0
:100D000050E011E2E62FF0E010935700849140FF8D
:100D100003C082958F706F5F8F70282F30E08A300C
:100D200018F0C901C79602C0C901C0968D939D9362
:100D30004F5F5F4F4431510529F77FBF8091E80035
:100D4000877F8093E800CE0103966AE270E03BDE85
:100D500012C060918802AE014F5F5F4F7FDCBC0123
:100D6000009709F43BC08091E800877F8093E800FA
:100D700089819A8184DE8091E8008B778093E800F6
:100D80002DC0803859F58091E800877F8093E80076
:100D9000809180028093F1008091E8008E778093AB
:100DA000E8009DDC1BC08823C9F490918602923034
:100DB000A8F48091E800877F8093E80090938002F8
:100DC0008EDC80918002882331F48091E30087FDDE
:100DD00002C081E001C084E08EBB25DA8091E8008A
:100DE00083FF0AC08091EB0080628093EB008091CA
:100DF000E800877F8093E800AC960FB6F894DEBFDA
:100E00000FBECDBFCF91DF911F910F91089508952F
:100E10001F938EB3882361F01091E9001092E900CE
:100E20008091E80083FF01C089DE1F701093E90004
:100E30001F9108950895FC018EB3843011F58189C6
:100E40009289A389B4890097A105B105D1F0818168
:100E50008093E9008091F2008823A9F09091E80046
:100E60008091E8008E778093E80095FD0CC056DCF9
:100E7000982F882349F48091E8008E778093E800CA
:100E800003C092E001C090E0892F0895FC018EB369
:100E9000843051F481899289A389B4890097A1058E
:100EA000B10511F0CF01C7CF08951F93FC01162F94
:100EB0008EB38430D9F481899289A389B48900974B
:100EC000A105B10599F081818093E9008091E80046
:100ED00085FD08C08091E8008E778093E8001EDCD5
:100EE000882329F41093F10080E001C082E01F9173
:100EF00008951F93CF93DF93EC010D96FC018BE0D7
:100F0000DF011D928A95E9F711E08981181729F40C
:100F10006A817B818C8152E010C08D81181731F479
:100F20006E817F81888552E030E008C0898518177E
:100F300039F56A857B858C8553E030E8882311F488
:100F400040E001C044E020E088E090E003C02F5F73
:100F5000880F991F86179707D0F3852F90E056E0EA
:100F6000880F991F5A95E1F760E0311161E0682B15
:100F700042602295207F422B812F9EDB882329F01F
:100F80001F5F153009F0C1CF81E0DF91CF911F9134
:100F90000895CF93DF93EC018091E80083FF9DC01B
:100FA000888190E0209188023091890228173907C2
:100FB00009F093C080918502813269F0823220F479
:100FC000803209F08AC03CC0823209F465C08332A5
:100FD00009F083C074C080918402813A09F07DC019
:100FE0008091E800877F8093E8008091E80080FF8F
:100FF000FCCF89899A89AB89BC898093F100292F1C
:101000003A2F4B2F55272093F1009D014427552758
:101010002093F1008B2F9927AA27BB278093F100FB
:101020008D898093F1008E898093F1008F89809360
:10103000F1008091E8008E778093E80050DB4DC08E
:1010400080918402813209F048C08091E800877F56
:101050008093E8008091E80082FFFCCF8091F1004E
:101060009091F1002091F1003091F100898B9A8BE1
:101070002B8B3C8B8091F1008D8B8091F1008E8BBE
:101080008091F1008F8B8091E8008B778093E8004E
:1010900026DBCE01C4D821C0809184028132E9F4DC
:1010A0008091E800877F8093E80019DB80918602B9
:1010B000909187029E878D87CE01BCDE0EC0809105
:1010C0008402813251F48091E800877F8093E800A8
:1010D00006DBCE0160918602ADDEDF91CF910895EF
:1010E000A1E21A2EAA1BBB1BFD010DC0AA1FBB1F2C
:1010F000EE1FFF1FA217B307E407F50720F0A21B9E
:10110000B30BE40BF50B661F771F881F991F1A940A
:1011100069F760957095809590959B01AC01BD0134
:10112000CF01089597FB092E05260ED057FD04D058
:10113000D7DF0AD0001C38F45095409530952195A2
:101140003F4F4F4F5F4F0895F6F7909580957095FC
:1011500061957F4F8F4F9F4F0895FB019F01E8944A
:101160004230BCF04532ACF44A3029F497FB1EF40F
:10117000909581959F4F642F77271ED0805D8A338D
:101180000CF0895D8193CB010097A9F716F45DE21D
:1011900051931082C90100C0DC01FC01672F7191DD
:1011A0007723E1F7329704C07C916D93708362914D
:1011B000AE17BF07C8F30895AA1BBB1B51E107C0B8
:1011C000AA1FBB1FA617B70710F0A61BB70B881FD7
:1011D000991F5A95A9F780959095BC01CD01089566
:0411E000F894FFCFB1
:1011E4000D0A636F6E6E65637465640D0A000D0A03
:1011F400636F6E666967206368616E6765640D0A74
:1012040000000310000004100000020800000000A9
:1012140000000000000000000072666D31322F7083
:101224006F72202D20696E69740072666D31322FE1
:101234006F766572666C6F77202D20696E69740015
:081244000D0A3E000D0A230013
:00000001FF
