:100000009AC00000B3C00000B1C00000AFC0000043
:10001000ADC00000ABC00000A9C00000A7C0000038
:10002000A5C00000A3C00000A1C000000CC30000D8
:10003000D1C200009BC0000099C0000097C0000022
:1000400095C0000093C0000091C000008FC0000068
:100050008DC000008BC0000089C00000CEC0000031
:1000600085C0000083C0000081C000007FC0000088
:100070007DC000007BC0000079C0000077C0000098
:1000800075C0000073C0000071C000006FC00000A8
:100090006DC000006BC000001201100102000008DA
:1000A000EB034B2001000102DC0109023E000201CA
:1000B00000C0320904000001020201000524001002
:1000C0000104240206052406000107058203080036
:1000D000FF09040100020A000000070504021000E5
:1000E00001070583021000010403090418034400FA
:1000F000650061006E002000430061006D00650036
:1001000072006100000030034C00550046004100C1
:1001100020005500530042002D00520053003200D1
:100120003300320020004100640061007000740060
:1001300065007200000011241FBECFEFD2E0DEBFC9
:10014000CDBF11E0A0E0B1E0E8E4FFE002C005901F
:100150000D92A831B107D9F712E0A8E1B1E001C0D2
:100160001D92AC33B107E1F7DAD0ECC649CFCF939B
:10017000DF93EC01E881F9816083888199810196A0
:10018000998388832E813F818217930721F48C8184
:100190009D81998388832FB7F8948A859B850196E2
:1001A0009B878A872FBFDF91CF910895CF93DF93ED
:1001B000EC01EA81FB813191FB83EA838E819F818F
:1001C000E817F90721F48C819D819B838A832FB7DF
:1001D000F8948A859B8501979B878A872FBF832FF9
:1001E000DF91CF9108958BB180638F7D8BB9089596
:1001F0008BB180638F7E8BB908951F920F920FB6DB
:100200000F9211242F933F934F935F936F937F939C
:100210008F939F93AF93BF93EF93FF936091CE0023
:100220008EB3843019F484EA91E0A1DFFF91EF915D
:10023000BF91AF919F918F917F916F915F914F91FE
:100240003F912F910F900FBE0F901F9018951F9305
:10025000FC018689813019F0823019F404C010E362
:1002600003C010E001C010E28589823009F41860F3
:100270008789873031F0883031F0863029F4126078
:1002800003C0146001C016601092C9001092C8002B
:100290001092CA002189328943895489CA01B9015F
:1002A000969587957795679560587B47814E9F4FC8
:1002B00027D6215030403093CD002093CC001093AE
:1002C000CA0082E08093C80088E98093C9001F912A
:1002D000089580E091E06DC580E091E01AD580FD41
:1002E00002C090E101C090E28BB1909580639823A9
:1002F0009BB9089584B7877F84BF88E10FB6F894CF
:1003000080936000109260000FBE8AB180638AB94A
:100310008BB180638BB94FD184E085BD0895CF93B5
:10032000DF93E8DFE8E1F1E02FB7F89484E291E0B1
:1003300091838083938382839583848384EA91E08D
:100340009783868380E890E0918780871386128662
:100350002FBFE4EAF1E02FB7F89480EB91E09183AE
:100360008083938382839583848380E392E0978361
:10037000868380E890E091878087138612862FBF5E
:100380008BB180638F7E8BB978948FB7F89420916E
:100390002201309123018FBF809120019091210192
:1003A0002817390749F080E091E028D4BC0197FD77
:1003B00003C088E191E0DBDE8FB7F894C091AE0115
:1003C000D091AF018FBFA89903C0C136D10590F07D
:1003D000A89A0EC0E091A601F091A70180E091E0FB
:1003E000608173D42197882329F484EA91E0DEDECA
:1003F000209781F72FB7F8948091220190912301E3
:100400002FBF892B51F088E191E0D0DE982F8091A9
:10041000C80085FFFCCF9093CE0080E091E046D4E9
:10042000DBD3B3CFDA01923049F0933061F09130F1
:10043000F9F4E8E9F0E022E130E01EC0EAEAF0E099
:100440002EE330E019C0813049F0813018F082305D
:1004500079F408C0E8EEF0E0849107C0ECEEF0E03B
:10046000849103C0E6E0F1E08491282F30E004C0DD
:10047000E0E0F0E020E030E0ED93FC93C901089566
:100480008093E9008091EB0081608093EB001092F3
:10049000ED006093EC004093ED008091EE00881F2A
:1004A0008827881F08958091340288238CF403C024
:1004B0008EB38823B1F08091E80082FFF9CF80915C
:1004C000E8008B778093E80008958EB3882349F085
:1004D0008091E80080FFF9CF8091E8008E778093CB
:1004E000E80008954091E4005091E50024E68091F1
:1004F000EC0080FF23C08091E80080FD1DC08EB31A
:10050000882311F482E00895853011F483E0089582
:100510008091EB0085FF02C081E008958091E400A6
:100520009091E5008417950711F3222311F484E0DC
:1005300008952150AC01DBCF80E008958091E80060
:1005400082FFDDCFF9CF40D042D08091D8008F77A5
:100550008093D8008091D80080688093D8008091E3
:10056000D8008F7D8093D80084E089BD86E089BD66
:1005700009B400FEFDCF1EBA109230021092320272
:100580001092310280E060E042E07ADF8091E10089
:100590008E7F8093E1008091E20081608093E20091
:1005A0008091E20088608093E2008091E0008E7F7D
:1005B0008093E0000895E3E6F0E080818E7F808301
:1005C00081E080933302BFCF1092E2000895109231
:1005D000E10008951F920F920FB60F9211241F93FE
:1005E0002F933F934F935F936F937F938F939F933B
:1005F000AF93BF93EF93FF93E9EEF0E010811F708C
:100600001082E0EFF0E08081877F808378947AD158
:10061000A9EEB0E01C92E0EFF0E08081886080837A
:100620001C93FF91EF91BF91AF919F918F917F911B
:100630006F915F914F913F912F911F910F900FBE3E
:100640000F901F9018951F920F920FB60F921124C2
:100650002F933F934F935F936F937F938F939F93CA
:10066000AF93BF93EF93FF938091E10082FF0AC0A5
:100670008091E20082FF06C08091E1008B7F809331
:10068000E100A9D28091E10080FF16C08091E200D4
:1006900080FF12C08091E2008E7F8093E200809103
:1006A000E20080618093E2008091D80080628093B4
:1006B000D80019BC1EBA9CDD8091E10084FF2CC0DB
:1006C0008091E20084FF28C084E089BD86E089BD76
:1006D00009B400FEFDCF8091D8008F7D8093D800B3
:1006E0008091E1008F7E8093E1008091E2008F7E17
:1006F0008093E2008091E20081608093E20080912B
:100700003002882331F48091E30087FD02C081E04C
:1007100001C084E08EBB67DD8091E10083FF26C0CD
:100720008091E20083FF22C08091E100877F809367
:10073000E10082E08EBB109230028091E1008E7F5A
:100740008093E1008091E2008E7F8093E2008091AF
:10075000E20080618093E20080E060E042E090DEB1
:100760008091F00088608093F00035D2FF91EF9186
:10077000BF91AF919F918F917F916F915F914F91B9
:100780003F912F910F900FBE0F901F9018959C01D5
:1007900040913A0250913B024617570718F4F9016D
:1007A00090E03CC06115710511F0AB01F8CF80916C
:1007B000E8008E778093E80040E050E0F0CF8EB301
:1007C0008823E9F18530E9F18091E80083FF02C0D8
:1007D00081E008958091E80082FD2BC08091E800BF
:1007E00080FF1CC08091F200282F30E007C081916B
:1007F0008093F100415050402F5F3F4F411551050C
:1008000019F02830310598F390E02830310509F4CB
:1008100091E08091E8008E778093E80041155105C2
:1008200071F6992361F605C08EB3882341F08530B7
:1008300041F08091E80082FFF7CF80E0089582E0E8
:10084000089583E008959C0140913A0250913B0243
:100850004617570718F4F90190E03FC0611571057C
:1008600011F0AB01F8CF8091E8008E778093E8001B
:1008700040E050E0F0CF8EB3882309F43FC08530CC
:1008800009F43EC08091E80083FF02C081E0089532
:100890008091E80082FD2CC08091E80080FF1DC09F
:1008A0008091F200282F30E008C084918093F100FD
:1008B0003196415050402F5F3F4F4115510519F07F
:1008C0002830310590F390E02830310509F491E0AB
:1008D0008091E8008E778093E8004115510559F624
:1008E000992349F605C08EB3882341F0853041F045
:1008F0008091E80082FFF7CF80E0089582E00895BC
:1009000083E008950F931F93DF93CF93CDB7DEB7A6
:10091000AC970FB6F894DEBF0FBECDBFE4E3F2E0B4
:100920008091F100819322E0EC33F207C9F7D1DC2A
:100930008091E80083FF36C1809134023091350206
:10094000353009F487C0363040F43130C9F13130E8
:1009500070F0333009F026C133C0383009F4F5C0E7
:10096000393009F404C1363009F01CC196C0803812
:1009700021F0823809F016C108C0909131028091AF
:100980003202882399F0926011C0809138028F70F2
:100990008093E9008091EB0090E025E096958795A3
:1009A0002A95E1F7982F91701092E9008091E80064
:1009B000877F8093E8009093F1001092F100D0C0FF
:1009C000882319F0823009F0EDC090E08F719070AB
:1009D000009721F0029709F0E5C00CC08091360223
:1009E000813009F0DFC010923202333069F5809314
:1009F00032022AC080913602882331F520913802D4
:100A00002F7009F4CFC02093E9008091EB0080FFA4
:100A10001BC0333021F48091EB00806213C08091C1
:100A2000EB0080618093EB0081E090E002C0880FD2
:100A3000991F2A95E2F78093EA001092EA008091CC
:100A4000EB0088608093EB001092E9008091E80051
:100A5000877F89C0882309F0A5C0109136021F77CF
:100A60000FB7F8948091E800877F8093E8001BDD42
:100A70008091E80080FFFCCF8091E3008078812B9B
:100A80008093E30080688093E300112311F482E0F7
:100A900001C083E08EBB0FBF85C08058823008F054
:100AA00081C0809136029091370223E08C3D9207FD
:100AB00009F033C083E08C838AE28B837FB7F8949C
:100AC000DE0115966EE040E050E011E2E62FF0E026
:100AD00010935700849140FF03C082958F706F5F21
:100AE0008F70282F30E08A3018F0C901C79602C0F5
:100AF000C901C0968D939D934F5F5F4F443151055F
:100B000029F77FBF8091E800877F8093E800CE01BE
:100B100003966AE270E03BDE12C060913802AE01DB
:100B20004F5F5F4F7FDCBC01009709F43BC08091B1
:100B3000E800877F8093E80089819A8184DE809134
:100B4000E8008B778093E8002DC0803859F58091BC
:100B5000E800877F8093E800809130028093F10065
:100B60008091E8008E778093E8009DDC1BC088238D
:100B7000C9F4909136029230A8F48091E800877F02
:100B80008093E800909330028EDC809130028823BD
:100B900031F48091E30087FD02C081E001C084E070
:100BA0008EBB9ADB8091E80083FF0AC08091EB0046
:100BB00080628093EB008091E800877F8093E8005B
:100BC000AC960FB6F894DEBF0FBECDBFCF91DF91CC
:100BD0001F910F91089508951F938EB3882361F09C
:100BE0001091E9001092E9008091E80083FF01C0B4
:100BF00089DE1F701093E9001F910895FC018EB3E8
:100C0000843021F581899289A389B4890097A1054F
:100C1000B105E1F085818093E9008091E80082FFD1
:100C200015C08091F200882319F42FEF3FEF04C024
:100C30008091F100282F30E08091F200882341F468
:100C40008091E8008B778093E80002C02FEF3FEFA0
:100C5000C90108950895FC018EB3843011F581898E
:100C60009289A389B4890097A105B105D1F081814A
:100C70008093E9008091F2008823A9F09091E80028
:100C80008091E8008E778093E80095FD0CC02ADC07
:100C9000982F882349F48091E8008E778093E800AC
:100CA00003C092E001C090E0892F0895FC018EB34B
:100CB000843051F481899289A389B4890097A10570
:100CC000B10511F0CF01C7CF08951F93FC01162F76
:100CD0008EB38430D9F481899289A389B48900972D
:100CE000A105B10599F081818093E9008091E80028
:100CF00085FD08C08091E8008E778093E800F2DBE4
:100D0000882329F41093F10080E001C082E01F9154
:100D100008951F93CF93DF93EC010D96FC018BE0B8
:100D2000DF011D928A95E9F711E08981181729F4EE
:100D30006A817B818C8152E010C08D81181731F45B
:100D40006E817F81888552E030E008C08985181760
:100D500039F56A857B858C8553E030E8882311F46A
:100D600040E001C044E020E088E090E003C02F5F55
:100D7000880F991F86179707D0F3852F90E056E0CC
:100D8000880F991F5A95E1F760E0311161E0682BF7
:100D900042602295207F422B812F72DB882329F02D
:100DA0001F5F153009F0C1CF81E0DF91CF911F9116
:100DB0000895CF93DF93EC018091E80083FF9DC0FD
:100DC000888190E020913802309139022817390744
:100DD00009F093C080913502813269F0823220F4AB
:100DE000803209F08AC03CC0823209F465C0833287
:100DF00009F083C074C080913402813A09F07DC04B
:100E00008091E800877F8093E8008091E80080FF70
:100E1000FCCF89899A89AB89BC898093F100292FFD
:100E20003A2F4B2F55272093F1009D01442755273A
:100E30002093F1008B2F9927AA27BB278093F100DD
:100E40008D898093F1008E898093F1008F89809342
:100E5000F1008091E8008E778093E80024DB4DC09C
:100E600080913402813209F048C08091E800877F88
:100E70008093E8008091E80082FFFCCF8091F10030
:100E80009091F1002091F1003091F100898B9A8BC3
:100E90002B8B3C8B8091F1008D8B8091F1008E8BA0
:100EA0008091F1008F8B8091E8008B778093E80030
:100EB000FADACE01CCD921C0809134028132E9F432
:100EC0008091E800877F8093E800EDDA8091360218
:100ED000909137029E878D87CE01BCDE0EC0809137
:100EE0003402813251F48091E800877F8093E800DA
:100EF000DADACE0160913602ADDEDF91CF9108954E
:100F0000A1E21A2EAA1BBB1BFD010DC0AA1FBB1F0D
:100F1000EE1FFF1FA217B307E407F50720F0A21B7F
:100F2000B30BE40BF50B661F771F881F991F1A94EC
:100F300069F760957095809590959B01AC01BD0116
:080F4000CF010895F894FFCFE2
:100F48000003100000041000000208000000000068
:080F5800000000000000000091
:00000001FF
