:10000000B9C00000D4C00000D2C00000D0C00000C1
:10001000CEC00000CCC00000CAC00000C8C00000B4
:10002000C6C00000C4C0000075C20000C0C000000F
:10003000BEC00000BCC00000BAC00000B8C00000D4
:10004000B6C00000B4C00000B2C00000B0C00000E4
:10005000AEC00000ACC00000AAC00000A8C00000F4
:10006000A6C00000A4C00000A2C00000A0C0000004
:100070009EC000009CC000009AC0000098C0000014
:1000800096C0000094C0000092C0000090C0000024
:100090008EC000008CC0000012011001EF020108A8
:1000A000EB034E2001000102DC0109028300040180
:1000B00000C032080B000202020100090400000126
:1000C0000202010005240010010424020605240692
:1000D0000001070583030800FF09040100020A006C
:1000E000000007050202100001070581021000014F
:1000F000080B0202020201000904020001020201CF
:10010000000524001001042402060524060203074A
:100110000586030800FF09040300020A0000000727
:1001200005050210000107058402100001040309FF
:100130000418034400650061006E00200043006164
:10014000006D0065007200610000001C034C00554A
:10015000004600410020004400750061006C002052
:10016000004300440043002000440065006D006F20
:100170000000000011241FBECFEFD0E2DEBFCDBFD4
:1001800011E0A0E0B1E0ECE1FFE000E00BBF02C055
:1001900007900D92A238B107D9F711E0A2E8B1E0BB
:1001A00001C01D92A039B107E1F784D0B5C628CFB0
:1001B0008BB18F70806A8BB908958BB18F7080611D
:1001C0008BB9089582E591E000D68AE691E0FDC5FD
:1001D0000F931F9382E591E0A8D5082F8AE691E05E
:1001E000A4D510E090E00823192300FF02C090E698
:1001F00001C090E98BB18F70982B9BB91F910F9123
:10020000089523B18CB1809590E08073907095959E
:1002100087952095207E282B27FD17C024FF03C03B
:1002200060E071E014C026FF03C060E171E00FC020
:1002300023FF03C060E271E00AC025FF03C061E351
:1002400071E005C010928201089564E471E080912C
:100250008201882331F481E08093820182E591E07C
:1002600046C5089584B7877F84BF88E10FB6F894A8
:1002700080936000109260000FBE80E090E020E864
:100280000FB6F89420936100809361000FBE84B193
:100290008F7184B98DB18F7C8DB985B1806E85B930
:1002A0008EB180638EB98AB1806F8AB98BB18F703D
:1002B0008BB91AC1D7DF8BB18F7080618BB97894FD
:1002C000A0DF82E591E07ED48AE691E07BD4BC0198
:1002D00097FD03C08AE691E0E5D482E591E0D2D4AF
:1002E0008AE691E0CFD45BD4EBCFDA01923049F0CB
:1002F000933061F09130F9F4E8E9F0E022E130E088
:100300001EC0EAEAF0E023E830E019C0813049F08D
:10031000813018F0823079F408C0EDE2F1E0849188
:1003200007C0E1E3F1E0849103C0EBE4F1E08491E4
:10033000282F30E004C0E0E0F0E020E030E0ED9372
:10034000FC93C9010895382F282F2CC02093E90071
:10035000231721F4762F942F50E006C07091EC0003
:100360009091ED005091F00091FF1BC08091EB0047
:100370008E7F8093EB008091ED008D7F8093ED0068
:100380008091EB0081608093EB007093EC00909380
:10039000ED005093F0008091EE0087FD02C080E0F8
:1003A00008952F5F273090F23093E90081E008959F
:1003B0008091880188239CF404C080918701882360
:1003C000B9F08091E80082FFF8CF8091E8008B7748
:1003D0008093E800089580918701882349F08091F7
:1003E000E80080FFF8CF8091E8008E778093E800E6
:1003F00008954091E4005091E50024E68091EC00DE
:1004000080FF24C08091E80080FD1EC0809187019C
:10041000882311F482E00895853011F483E0089573
:100420008091EB0085FF02C081E008958091E40097
:100430009091E5008417950709F3222311F484E0D5
:1004400008952150AC01DACF80E008958091E80052
:1004500082FFDCCFF9CFEF92FF920F931F934DD025
:1004600054D008ED10E0F80180818F77808380817F
:100470008068808380818F7D8083E7EDF0E08081DC
:100480008068808319BC10928701109283011092BA
:1004900085011092840180EEE82EF12CF701808115
:1004A0008B7F8083F80180818160808380E060E0C1
:1004B00042E049DFE1EEF0E080818E7F8083E2EE72
:1004C000F0E0808181608083808188608083F70193
:1004D00080818E7F8083F8018081806180831F917D
:1004E0000F91FF90EF900895E7EDF0E0808181603B
:1004F000808381E080938601AECFE8EDF0E08081DB
:100500008C7F80831092E20008951092DA0010929E
:10051000E10008951F920F920FB60F920BB60F9243
:1005200011242F933F934F935F936F937F938F93F8
:100530009F93AF93BF93EF93FF938091E10082FF6E
:100540000AC08091E20082FF06C08091E1008B7FAB
:100550008093E10023D38091DA0080FF1DC0809159
:10056000D80080FF19C08091DA008E7F8093DA0076
:100570008091D90080FF0CC08CE089BD8EE089BDE0
:1005800009B400FEFDCF81E08093870111DE04C035
:1005900019BC1092870111DE8091E10080FF18C024
:1005A0008091E20080FF14C08091E2008E7F8093F2
:1005B000E2008091E20080618093E2008091D800A7
:1005C00080628093D80019BC85E080938701E6D2D1
:1005D0008091E10084FF2DC08091E20084FF29C05A
:1005E0008CE089BD8EE089BD09B400FEFDCF80910D
:1005F000D8008F7D8093D8008091E1008F7E80931A
:10060000E1008091E2008F7E8093E2008091E20021
:1006100081608093E20080918301882331F480918E
:10062000E30087FD02C081E001C084E08093870180
:10063000B5D28091E10083FF22C08091E20083FF68
:100640001EC08091E100877F8093E10082E080936B
:100650008701109283018091E1008E7F8093E100F9
:100660008091E2008E7F8093E2008091E2008061C1
:100670008093E20080E060E042E065DE8FD2FF918F
:10068000EF91BF91AF919F918F917F916F915F910A
:100690004F913F912F910F900BBE0F900FBE0F9077
:1006A0001F9018959C0140918E0150918F01461723
:1006B000570718F4F90190E03DC06115710511F07C
:1006C000AB01F8CF8091E8008E778093E80040E09E
:1006D00050E0F0CF809187018823F1F18530F1F16E
:1006E0008091E80083FF02C081E008958091E800D6
:1006F00082FD2CC08091E80080FF1CC02091F20098
:100700003091F30007C081918093F1004150504037
:100710002F5F3F4F4115510519F02830310598F3EF
:1007200090E02830310509F491E08091E8008E775F
:100730008093E8004115510569F6992359F606C0E2
:1007400080918701882341F0853041F08091E80055
:1007500082FFF6CF80E0089582E0089583E0089557
:100760009C0140918E0150918F014617570718F454
:10077000F90190E040C06115710511F0AB01F8CFAF
:100780008091E8008E778093E80040E050E0F0CF61
:1007900080918701882309F440C0853009F43FC067
:1007A0008091E80083FF02C081E008958091E80015
:1007B00082FD2DC08091E80080FF1DC02091F200D5
:1007C0003091F30008C084918093F100319641503C
:1007D00050402F5F3F4F4115510519F0283031052A
:1007E00090F390E02830310509F491E08091E80021
:1007F0008E778093E8004115510551F6992341F613
:1008000006C080918701882341F0853041F08091B6
:10081000E80082FFF6CF80E0089582E0089583E04B
:100820000895BF92CF92DF92EF92FF920F931F93A2
:10083000CF93DF93182F092F7B016A01DADDB82EE1
:100840008823B1F5812F902F9C01E901C114D104B7
:1008500039F0F60180819181E81AF90AC80FD91F91
:1008600000E010E022C08091E80085FD16C0809174
:10087000E8008E778093E80092D1C114D10449F04A
:10088000F60180819181800F911F9183808385E0A3
:1008900010C0AFDD882349F00CC089918093F1002E
:1008A0000894E108F1080F5F1F4FE114F104D9F635
:1008B0008B2DDF91CF911F910F91FF90EF90DF90E3
:1008C000CF90BF9008950F931F93DF93CF93CDB731
:1008D000DEB7AC970FB6F894DEBF0FBECDBFE8E829
:1008E000F1E08091F100819321E0E039F207C9F74E
:1008F00069DC8091E80083FF38C1809188013091E4
:100900008901353009F487C0363040F43130C9F1FF
:10091000313070F0333009F028C133C0383009F479
:10092000F6C0393009F405C1363009F01EC197C050
:10093000803821F0823809F018C108C090918401F4
:1009400080918501882399F0926011C080918C017B
:100950008F708093E9008091EB0090E025E0969500
:1009600087952A95E1F7982F91701092E900809170
:10097000E800877F8093E8009093F1001092F100E7
:10098000D1C0882319F0823009F0EFC090E08F7158
:100990009070009721F0029709F0E7C00CC0809199
:1009A0008A01813009F0E1C010928501333069F588
:1009B000809385012AC080918A01882331F5209196
:1009C0008C012F7009F4D1C02093E9008091EB00D5
:1009D00080FF1BC0333021F48091EB00806213C094
:1009E0008091EB0080618093EB0081E090E002C099
:1009F000880F991F2A95E2F78093EA001092EA0087
:100A00008091EB0088608093EB001092E900809168
:100A1000E800877F8AC0882309F0A7C010918A0167
:100A20001F770FB7F8948091E800877F8093E800E4
:100A3000BFDC8091E80080FFFCCF8091E3008078EC
:100A4000812B8093E30080688093E300112311F4ED
:100A500082E001C083E0809387010FBF86C0805889
:100A6000823008F082C080918A0190918B0123E04E
:100A70008C3D920709F033C083E08C838AE28B833C
:100A80007FB7F894DE0115966EE040E050E011E289
:100A9000E62FF0E010935700849140FF03C0829549
:100AA0008F706F5F8F70282F30E08A3018F0C90187
:100AB000C79602C0C901C0968D939D934F5F5F4F4B
:100AC0004431510529F77FBF8091E800877F8093EB
:100AD000E800CE0103966AE270E0E4DD12C06091A6
:100AE0008C01AE014F5F5F4F00DCBC01009709F441
:100AF0003CC08091E800877F8093E80089819A81DB
:100B00002FDE8091E8008B778093E8002EC080383C
:100B100061F58091E800877F8093E80080918301F0
:100B20008093F1008091E8008E778093E80040DCAC
:100B30001CC08823D1F490918A019230B0F4809146
:100B4000E800877F8093E8009093830131DC8091F7
:100B50008301882331F48091E30087FD02C081E0A6
:100B600001C084E08093870133DB8091E80083FF3C
:100B70000AC08091EB0080628093EB008091E800D6
:100B8000877F8093E800AC960FB6F894DEBF0FBE67
:100B9000CDBFCF91DF911F910F91089508951F93BD
:100BA00080918701882361F01091E9001092E9009B
:100BB0008091E80083FF01C086DE1F701093E9007A
:100BC0001F910895FC0180918701843041F581894E
:100BD0009289A389B4890097A105B10501F18581A6
:100BE0008093E9008091E80082FF19C08091F200B3
:100BF0009091F300892B19F42FEF3FEF04C08091FF
:100C0000F100282F30E08091F2009091F300892BC1
:100C100041F48091E8008B778093E80002C02FEFC9
:100C20003FEFC90108950895FC0180918701843048
:100C300021F581899289A389B4890097A105B1051D
:100C4000E1F081818093E9008091F2009091F300BE
:100C5000892BA9F09091E8008091E8008E7780932D
:100C6000E80095FD0CC0C5DB982F882349F48091DE
:100C7000E8008E778093E80003C092E001C090E026
:100C8000892F0895FC0180918701843051F4818976
:100C90009289A389B4890097A105B10511F0CF010C
:100CA000C3CF08951F93FC01162F809187018430D4
:100CB000D9F481899289A389B4890097A105B105E6
:100CC00099F081818093E9008091E80085FD08C05A
:100CD0008091E8008E778093E8008BDB882329F4ED
:100CE0001093F10080E001C082E01F910895FC01A3
:100CF000809187018430B9F481899289A389B4896C
:100D00000097A105B10579F081818093E900DB01AD
:100D10000D900020E9F71197A61BB70BCB01BD0181
:100D200040E050E07ECD82E008951F93CF93DF93A3
:100D3000EC010D96FC018BE0DF011D928A95E9F72D
:100D400011E08981181729F46A817B818C8152E036
:100D500010C08D81181731F46E817F81888552E033
:100D600030E008C08985181739F56A857B858C8540
:100D700053E030E8882311F440E001C044E020E073
:100D800088E090E003C02F5F880F991F86179707B0
:100D9000D0F3852F90E056E0880F991F5A95E1F720
:100DA00060E0311161E0682B42602295207F422B88
:100DB000812FC9DA882329F01F5F173009F0C1CFCE
:100DC00081E0DF91CF911F910895CF93DF93EC01E4
:100DD0008091E80083FF9DC0888190E020918C0184
:100DE00030918D012817390709F093C0809189014E
:100DF000813269F0823220F4803209F08AC03CC02E
:100E0000823209F465C0833209F083C074C08091D6
:100E10008801813A09F07DC08091E800877F809346
:100E2000E8008091E80080FFFCCF89899A89AB892E
:100E3000BC898093F100292F3A2F4B2F55272093FF
:100E4000F1009D01442755272093F1008B2F99270E
:100E5000AA27BB278093F1008D898093F1008E89AA
:100E60008093F1008F898093F1008091E8008E7764
:100E70008093E8009DDA4DC080918801813209F0AD
:100E800048C08091E800877F8093E8008091E80067
:100E900082FFFCCF8091F1009091F1002091F10050
:100EA0003091F100898B9A8B2B8B3C8B8091F100D8
:100EB0008D8B8091F1008E8B8091F1008F8B8091D2
:100EC000E8008B778093E80073DACE01ACDE21C0B6
:100ED000809188018132E9F48091E800877F8093D6
:100EE000E80066DA80918A0190918B019E878D8758
:100EF000CE0199DE0EC080918801813251F480913B
:100F0000E800877F8093E80053DACE0160918A0180
:0C0F10008ADEDF91CF910895F894FFCFA6
:100F1C004A6F79737469636B20446F776E0D0A00A6
:100F2C004A6F79737469636B204C6566740D0A00A3
:100F3C004A6F79737469636B2052696768740D0A20
:100F4C00004A6F79737469636B20507265737365B3
:100F5C00640D0A004A6F79737469636B2055700DC8
:100F6C000A0000011000000210000003080000003D
:100F7C00000000000000000000000204100000054A
:100F8C001000000608000000000000000000000037
:020F9C00000053
:00000001FF
